:020000042000DA
:1000000060140120C1010020E1020020DD02002077
:10001000DF02002035020020DD0900200000000082
:100020000000000000000000000000006106002049
:100030003702002000000000610300208507002037
:10004000DB010020DB010020DB010020DB010020C0
:10005000DB010020DB010020DB010020DB010020B0
:10006000DB010020DB010020DB010020DB010020A0
:10007000DB010020DB010020DB010020DB01002090
:10008000DB010020DB010020DB010020DB01002080
:10009000DB010020DB010020DB010020DB01002070
:1000A000DB010020DB010020DB010020DB01002060
:1000B000DB010020DB010020DB010020DB01002050
:1000C000DB010020DB010020DB010020DB01002040
:1000D000DB010020DB010020DB010020DB01002030
:1000E000DB010020DB010020DB010020DB01002020
:1000F000DB010020DB010020DB010020DB01002010
:10010000DB010020DB010020DB010020DB010020FF
:10011000DB010020DB010020DB010020DB010020EF
:10012000DB010020DB010020DB010020DB010020DF
:10013000DB010020DB010020DB010020DB010020CF
:10014000DB010020DB010020DB010020DB010020BF
:10015000DB010020DB010020DB010020DB010020AF
:10016000DB010020DB010020DB010020DB0100209F
:10017000DB010020DB010020DB010020DB0100208F
:10018000DB010020DB010020DB010020DB0100207F
:10019000DB010020DB010020DB010020DB0100206F
:1001A000DB010020DB010020DB010020DFF80CD0A8
:1001B00000F02EF800480047690F0020601401206D
:1001C0000648804706480047FEE7FEE7FEE7FEE7F1
:1001D000FEE7FEE7FEE7FEE7FEE7FEE78907002011
:1001E000AD01002030B50B4601460020202201243D
:1001F00009E021FA02F59D4205D303FA02F5491BF5
:1002000004FA02F52844151EA2F10102F1DC30BD0A
:10021000064C074D06E0E06840F0010394E8070053
:1002200098471034AC42F6D3FFF7C4FFE812002021
:1002300008130020FEE770472DE9F0410022012756
:100240004FF0030C07FA02F50B682B40AB422CD1A0
:10025000066853000CFA03F4A64306600E79D0F842
:1002600000809E4046EA080606600E79012E01D005
:10027000022E12D18668A64386604E79D0F8088097
:100280009E4046EA080686604668AE43466045687A
:100290008E799640B6B235434560C568A543C560C2
:1002A000CC799C40C3681C43C460521C102AC9D33B
:1002B000BDE8F08110B54B07DB0E9A40C90800EB92
:1002C0008100016A0F249C40A1430162016A11432D
:1002D000016210BD4183704701837047FEE7FEE76E
:1002E0007047000030B50F23C27801250178002A3D
:1002F0001FD0154A126802F4E062C2F5E062C2F350
:100300000722C2F10404D3404278A24084781C4002
:100310001443220101F1E02181F80024007800F06B
:100320001F018D404009800000F1E020C0F800511D
:1003300030BD01F01F0085404809800000F1E02039
:10034000C0F8805130BD00000CED00E002490843C8
:1003500002490860704700000000FA050CED00E05B
:1003600070470000054A002903D01168014311605D
:1003700070471168814311607047000030380240B7
:10038000054A002903D011680143116070471168C4
:1003900081431160704700004438024070B5244B1F
:1003A000196801F00C01234C00291ED0224E0429AB
:1003B0001DD008291DD00460196801F0F001090959
:1003C0001E4A545C0168E14041601C6804F4E0543A
:1003D000A40A145D21FA04F484601B6803F46043EA
:1003E0005B0BD25CD140C16070BD0460E4E7066085
:1003F000E2E70F4A121F1168C1F38055116801F03E
:100400003F0135B1B6FBF1F11468C4F388146143C0
:1004100005E0B4FBF1F11468C4F388146143126879
:10042000C2F30142521C5200B1FBF2F10160C3E77A
:10043000083802400024F40040787D0100000120CB
:100440002DE9F04106460D46144600F0C9FA134F57
:1004500040213846FFF73EFF132000F07BF8300EB6
:1004600000F078F8C6F3074000F074F8C6F30720F0
:1004700000F070F8F0B200F06DF804E0FF2000F03A
:1004800069F805F8010B641EA4B2F7D24021384682
:10049000FFF722FFBDE8F04100F0A2BA00140240CD
:1004A000002904D0018841F0400101807047018893
:1004B00021F04001018070472DE9F04100F090FAF1
:1004C0000F4F40213846FFF705FF9F2000F042F80C
:1004D000FF2000F03FF80446FF2000F03BF80546FF
:1004E000FF2000F037F8064640213846FFF7F4FEBB
:1004F00000F076FA200440EA05203043BDE8F081A0
:10050000001402400246002012890A4200D0012055
:100510007047808970478181704730B5028802F446
:1005200041530A884C88CD8822438C882C4322432F
:100530000C8922434C8922438C892243CC89224353
:100540001A430280828B22F400628283098A01822C
:1005500030BD000070B505460A4C02212046FFF769
:10056000D1FF0028F9D029462046FFF7D4FF01210A
:100570002046FFF7C7FF0028F9D02046FFF7C9FF44
:10058000C0B270BD005001402DE9F04188B001219A
:100590002020FFF7E7FE01210805FFF7F1FE012704
:1005A0008DF81C7000248DF81E408DF81F40022528
:1005B0008DF81D5040200690DFF89C8006A940462B
:1005C000FFF73AFE8DF81C508DF81E408DF81F4045
:1005D0008DF81D50052207214046FFF76BFE802055
:1005E000069006A94046FFF727FE0522082140464F
:1005F000FFF760FEE801069006A94046FFF71CFEE3
:10060000052209214046FFF755FE2E02069606A94F
:100610004046FFF711FEADF81040ADF80C70ADF894
:100620000A50ADF81440ADF80840ADF80440ADF8FC
:1006300012404FF48270ADF80600ADF80E60074C22
:1006400001A92046FFF769FF01212046FFF728FF97
:1006500008B0BDE8F08100000014024000500140E5
:100660007047000070B5044600F0BAF900F03EFA99
:100670000E4D40212846FFF72DFE2020FFF76AFF90
:10068000200EFFF767FFC4F30740FFF763FFC4F3D3
:100690000720FFF75FFFE0B2FFF75CFF402128462D
:1006A000FFF71AFEBDE8704000F09AB9001402404E
:1006B0001CB50021019100912E4A106840F4803051
:1006C00010604FF4A043106800F4003000900198CF
:1006D000401C0190009810B901989842F3D110681D
:1006E000800302D50120009000E0009100980128CD
:1006F0003FD120484030016841F0805101601E49DF
:10070000086840F4404008601A48083003680360F5
:10071000036843F400430360036843F4A053036099
:10072000041F164B2360136843F080731360136833
:100730009B01FCD50A6842F480320A604A68D20301
:10074000FCD50A6842F400320A604A689203FCD57C
:100750000B4A40F205711160016821F0030101604C
:10076000016841F0020101600168C1F381010229C1
:10077000FAD11CBD0038024000700040195A4007F1
:10078000003C02407047000010B51248016841F477
:10079000700101601048016841F0010101600E4ADA
:1007A00000210832116002680C4B1A400260031DE0
:1007B0000B4A1A60026822F48022026006480C305C
:1007C0000160FFF775FF03494FF000508039086062
:1007D00010BD000088ED00E000380240FFFFF6FE8B
:1007E000103000248A05C94301807047002904D0D5
:1007F000818941F4005181817047818921F4005140
:10080000818170470246002012880A4200D00120F0
:10081000704710B540F66A13C1F3421301F01F048C
:100820000121A140012B07D0022B07D014303AB18F
:1008300002680A43026010BD0C30F8E71030F6E79A
:1008400002688A43026010BD7FB504460D46208AC7
:1008500020F44051E88808432082A08941F20C61CD
:100860008843A9882A8911436A8902431143A181D7
:10087000A08A20F44071A8890843A0826846FFF747
:100880008DFD1E48844202D01D48844201D1039848
:1008900000E00298A189090408D500EBC00101EB32
:1008A000001029684900B0FBF1F007E000EBC0013F
:1008B00001EB001029688900B0FBF1F06422B0FB65
:1008C000F2F109010B096FF018056B4300EB83008F
:1008D000A3891D044FF0320307D503EBC000B0FB22
:1008E000F2F000F00700084306E003EB0010B0FB55
:1008F000F2F000F00F00084320817FBD001001409E
:1009000000140140C1F308018180704730B587B001
:1009100001210846FFF726FD01211020FFF730FDD9
:1009200001218805FFF71EFD4FF4E060FFF70EFD83
:1009300025208DF8180001208DF81B0000248DF86B
:1009400019408DF81A4006A8FFF7CCFC02208DF85C
:1009500014008DF816408DF817408DF815004002F0
:1009600004901C4D07220A212846FFF7A3FC04A986
:100970002846FFF761FC69150491072209212846E2
:10098000FFF798FC04A92846FFF756FC4FF4E13026
:100990000090ADF80C400C20ADF80A00ADF808400E
:1009A000ADF80640ADF804400B4C69462046FFF711
:1009B0004BFF40F22555012229462046FFF729FF2B
:1009C00029462046FFF70EFF01212046FFF70EFFC4
:1009D00007B030BD0000024000100140FEE70000FB
:1009E00070B50124094D0EE040212846FFF772FC46
:1009F0000520FFF7AFFDFF20FFF7ACFD04464021C7
:100A00002846FFF769FCE007EED170BD00140240F4
:100A10002DE9F04705460E46E8B24142CFB2C2F397
:100A2000072402F0FF0A4FF48078002812D0E8B2C1
:100A30004042C0B205EB00093CB3D01BC0F3072411
:100A400000F0FF0A3A463146284600F065F84D4668
:100A50003E443BE07CB931462846BDE8F04792B2BF
:100A600000F05AB842463146284600F055F805F5E0
:100A7000807506F58076641EE4B2F3D252463146A4
:100A80002846BDE8F04700F047B8BA450ED9AAEBB2
:100A90000700C4B23A463146284600F03DF84846C1
:100AA000F1192246BDE8F04700F036B83146284635
:100AB000BDE8F04792B200F02FB8424631462846D2
:100AC00000F02AF805F5807506F58076641EE4B21C
:100AD000F3D2BAF1000F06D0524631462846BDE89F
:100AE000F04700F019B8BDE8F087000010B5FFF737
:100AF00077FF084C40212046FFF7ECFB0620FFF76C
:100B000029FD40212046FFF7E7FBBDE81040FFF735
:100B100067BF0000001402402DE9F04106460D4673
:100B20001446FFF75DFFFFF7E1FF134F4021384602
:100B3000FFF7D0FB1220FFF70DFD300EFFF70AFD87
:100B4000C6F30740FFF706FDC6F30720FFF702FDD7
:100B5000F0B2FFF7FFFC03E02878FFF7FBFC6D1C09
:100B6000641EA4B2F8D240213846FFF7B5FBBDE8B9
:100B7000F041FFF735BF0000001402400FB4054BF1
:100B800010B503A9044A029800F018F810BC5DF8EB
:100B900014FB0000E50E00201400012002E008C84C
:100BA000121F08C1002AFAD170477047002001E0E7
:100BB00001C1121F002AFBD1704700002DE9FF4F31
:100BC00089B09B460446002506E025280BD05A46EE
:100BD0000B999047641C6D1C20780028F5D10DB04E
:100BE0002846BDE8F08F0027B8460122474900E0BB
:100BF000074314F8013F203B02FA03F00842F7D103
:100C000020782E2819D114F8010F47F004072A285C
:100C10000ED06FF02F022078A0F1300109290CD8F6
:100C200008EB880102EB410100EB0108641CF2E7CC
:100C30000A98641C50F8048B0A9020780028CED0C3
:100C4000642808D0692806D075281ED05A460B990A
:100C500090476D1C58E00A994FF00A0901C90A91A2
:100C6000002802DA40422D2102E0390504D52B216B
:100C70008DF82010012103E0F90704D02021F7E7C7
:100C80008A4608AE0DE00021FAE70A994FF00A09FA
:100C900001C90A91F7E74946FFF7A4FA303106F88F
:100CA000011D0028F7D1ADEB060000F120097807FF
:100CB00001D44FF00108C84502DDA8EB090000E0AF
:100CC00000208046002706E008A85A46C05D0B9920
:100CD00090476D1C7F1C5745F6DB04E030205A46D8
:100CE0000B9990476D1CB8F10001A8F10108F5DCE3
:100CF00005E016F8010B5A460B9990476D1CB9F1A7
:100D00000001A9F10109F4DC641C65E70928010070
:100D100010B504460020E070401E2063204600F01D
:100D2000A5FA08B1042010BD04F2322000F017F932
:100D3000A0F52A41553901D0032010BD94F83400A4
:100D4000E92803D0EB2801D0E8280DD1032209A11E
:100D500004F16A0000F03EF940B1052206A104F159
:100D6000860000F037F918B1022010BD002010BD38
:100D7000002010BD4641540046415433320000006B
:100D800010B5032801D0012010BDFFF7FDFBFFF7D0
:100D900093FB0349884201D1002010BD012010BD02
:100DA0001940EF0003280FD171B14FF48050012991
:100DB00004D0022904D0032906D103E0106003E027
:100DC000108001E0012010600420704710B5032856
:100DD00001D0042010BD02F580524FF6FF7000EAEA
:100DE000033310031A46FFF72BFB002010BD000051
:100DF00010B5032801D0012010BDFFF75DFB0349AA
:100E0000884201D1002010BD012010BD1940EF0023
:100E100070B50D461E46032801D0042070BD02F5B2
:100E2000805210030446FFF71DFC3203204629467A
:100E3000FFF7EEFD002070BD17B581B01446029893
:100E40000090684600F060F8002802DA0B2004B039
:100E500010BD0A4B53F82010002201B10A7001990D
:100E600001B10A7043F820102CB1002201A902A898
:100E700000F0BCF8EBE70020E9E700004C1001208F
:100E80002DE9FF4106460D4600213046FFF740FFA1
:100E9000022803D0032821D2002D1FD000246F4642
:100EA00006EB041000F5FD7000F04EF847F8240042
:100EB000641C042CF4D30DB16C1E00E0002457F820
:100EC000241019B13046FFF723FF00E00320002D66
:100ED00004D1022802D3641C042CF0D304B0BDE872
:100EE000F081000070B50446064DE1B22846FFF7D8
:100EF00009FD80212846FFF785FC0028F9D020460F
:100F000070BD00000010014030B505464FF0FF30C5
:100F100029680C46002C08D011F8012B212A01D396
:100F20003A2AF9D13A2A01D0002030BD052322788F
:100F3000303A092A03D8A41C8C4200D11346052B51
:100F4000F3DA1846296030BDC178827842EA01217F
:100F5000427842EA0121007840EA01207047417856
:100F6000007840EA01207047FFF7D0FC07A0FFF7A8
:100F700005FE01220FA11048FFF75EFF0F49087020
:100F800001460FA0FFF7FAFDFEE700000A2E2E2E05
:100F90002E2E2E2E2E2E2E2E2E2E2E2E2E2E2E2E71
:100FA0002E2E2E2E2E2E2E2E2E2E2E2E2E2E2E2E61
:100FB0002E0A0000323A0000180001201000012023
:100FC0004641545F526573756C74203D2025640A58
:100FD0000000000010B510F8013B11F8014B1B1B7D
:100FE000521E01D0002BF6D0184610BD2DE9F0415D
:100FF0000E4617464FF00008C6F80080FFF784FF42
:101000000546280002D50B20BDE8F081924850F833
:1010100025409CB1346007F0FE06207820B160784E
:10102000FFF7E6FEC1070BD084F80080E8B26070DD
:10103000FFF7A6FEC1070AD00320E5E70C20E3E78F
:101040001EB1400701D50A20DEE70020DCE71EB113
:10105000400701D50A20D7E7607804F10C0202218D
:10106000FFF7A0FE08B10120CEE7A089A0F500712E
:10107000B1F5606F02D8411E084201D00120C3E7DC
:1010800000212046FFF7FCFE042803D0022803D3EA
:101090000D20B9E70120B7E7266B04F13F00FFF709
:1010A0005EFFA189884201D00D20ADE704F14A001E
:1010B000FFF755FF18B904F15800FFF745FFE0614D
:1010C00094F84470A770012F03D0022F01D00D2097
:1010D0009AE7474394F84100608110B1411E0842ED
:1010E00001D00D2090E704F14500FFF738FF208183
:1010F000A1894909B0FBF1F201FB120008B10D20F2
:1011000082E704F14700FFF72AFF054625B904F1FD
:101110005400FFF719FF054604F14200FFF71FFFD7
:10112000014651B1A08923894009B3FBF0F0CA19E7
:101130000244954203D20D2066E70D2064E7A81A09
:101140006589B0FBF5F070B30025DFF810C160458C
:1011500000D803254FF6F57C604500D8022540F6FF
:10116000F57C604500D8012505B3801CA06126628E
:10117000314461623244E262032D19D05BB33944D9
:10118000A162022D29D000F0010100EB400001EB2B
:101190005000A189401E0844B0FBF1F0E16988428B
:1011A0001DD90D2030E7FFE70D202DE70D202BE79F
:1011B00004F15E00FFF7D3FE08B10D2024E720897B
:1011C00008B10D2020E704F16000FFF7BDFEA0622A
:1011D000A0698000DDE70D2016E74000D9E74FF059
:1011E000FF306061206180202071032D2CD104F13B
:1011F0006400FFF7B4FE012826D1711C204600F0E0
:1012000035F808BB84F8048004F23220FFF7A7FE0B
:10121000A0F52A41553917D104F13400FFF794FEA7
:101220000F49884210D104F50670FFF78DFE0D4975
:10123000884209D104F50770FFF786FE606104F566
:101240000870FFF781FE2061257007490888401C5F
:101250000880E0800020D7E64C100120F5FFFF0F4A
:1012600052526141727241611200012070B5044610
:101270000E460025206BB04210D0204600F010F83A
:1012800005465DB960780123324604F13401FFF769
:101290009DFD10B14FF0FF3601252663284670BD35
:1012A00070B504460025E078002809D004F1340127
:1012B000607801230E46226BFFF7AAFD10B10125CD
:1012C000284670BD0020E070616A206B421AE16917
:1012D0008A42F5D2A278022AF2D14218607801231C
:1012E0003146FFF795FDEBE70813002000000120D1
:1012F000180000009C0B0020201300201800012083
:1013000048140000AC0B00200000000001020304A0
:1013100001020304060708090000000000000000A5
:04000005200001AD29
:00000001FF
