:020000040800F2
:1000000080240020C1010008690600086506000878
:100010006706000869020008B10D00080000000032
:10002000000000000000000000000000350A000889
:100030006B02000800000000E9060008590B0008E8
:10004000DB010008DB010008DB010008DB01000820
:10005000DB010008DB010008DB010008DB01000810
:10006000DB010008DB010008DB010008DB01000800
:10007000DB010008DB010008DB010008DB010008F0
:10008000DB010008DB010008DB010008DB010008E0
:10009000DB010008DB010008DB010008DB010008D0
:1000A000DB010008DB010008DB010008DB010008C0
:1000B000DB010008DB010008DB010008DB010008B0
:1000C000DB010008DB010008DB010008DB010008A0
:1000D000DB010008DB010008DB010008DB01000890
:1000E000DB010008DB010008DB010008DB01000880
:1000F000DB010008DB010008DB010008DB01000870
:10010000DB010008DB010008DB010008DB0100085F
:10011000DB010008DB010008DB010008DB0100084F
:10012000DB010008DB010008DB010008DB0100083F
:10013000DB010008DB010008DB010008DB0100082F
:10014000DB010008DB010008DB010008DB0100081F
:10015000DB010008DB010008DB010008DB0100080F
:10016000DB010008DB010008DB010008DB010008FF
:10017000DB010008DB010008DB010008DB010008EF
:10018000DB010008DB010008DB010008DB010008DF
:10019000DB010008DB010008DB010008DB010008CF
:1001A000DB010008DB010008DB010008DFF80CD0F0
:1001B00000F048F800480047A92C000880240020DF
:1001C0000648804706480047FEE7FEE7FEE7FEE7F1
:1001D000FEE7FEE7FEE7FEE7FEE7FEE75D0B000851
:1001E000AD01000840EA01039B0703D009E008C9FC
:1001F000121F08C0042AFAD203E011F8013B00F8EC
:10020000013B521EF9D27047421C10F8011B002915
:10021000FBD1801A704730B50B46014600202022E2
:10022000012409E021FA02F59D4205D303FA02F503
:10023000491B04FA02F52844151EA2F10102F1DC63
:1002400030BD0000064C074D06E0E06840F00103B9
:1002500094E8070098471034AC42F6D3FFF7AAFFA2
:1002600084340008A4340008FEE7704770B59AB0E3
:1002700064223F496846FFF7B5FF0B223DA1404885
:1002800002F010F83F4C2070002830D001463EA00C
:1002900000F058FE6846FFF7B7FF024619AB694603
:1002A000374802F0E7FA2070002824D001463DA02C
:1002B00000F048FE324D2846E96801F026FC207027
:1002C00000281DD03EA000F03DFE41A12C4802F0C8
:1002D000C7F8064642A12A48EA6802F0C1F830444D
:1002E000C1B2002911D043A000F02CFE10E049A0BB
:1002F00000F028FECEE74BA0199900F023FED9E7C5
:1003000050A0E96800F01EFEDFE755A000F01AFEDD
:1003100000211B4801F0F9FB2070C8B128A000F0B3
:1003200011FE19AB69461648EA6802F09CF9207084
:1003300098B101461BA000F005FE114801F06BFBCF
:10034000207080B101464BA000F0FCFD1AB070BDDA
:1003500000213CA000F0F6FDE3E76A464CA01999A5
:1003600000F0F0FDE9E756A000F0ECFDEEE700003C
:1003700074330008303A546573742E747874000036
:1003800054100020100000200ACEC4BCFEB4F2BFFE
:10039000AACAA7B0DC2CB4EDCEF3B4FAC2EB282580
:1003A00064290A000ACEC4BCFED0B4C8EBCAA7B008
:1003B000DC2CB4EDCEF3B4FAC2EB282564290A0094
:1003C0000AC6ABD2C6B9E2B1EACAA7B0DC0A0000DD
:1003D0000ACCEDBCD3D0C2C4DAC8DD0A00000000EC
:1003E000B5B1C7B0D7D6B7FBCAFD20A3BA25640AFA
:1003F000000000000ACCEDBCD3D0C2C4DAC8DDB323
:10040000C9B9A62CD7D6BDDACAFDCEAA20A3BA2573
:10041000640A00000ACEC4BCFEB4F2BFAAB3C9B9D4
:10042000A60A00000ACEC4BCFED0B4C8EBB3C9B95A
:10043000A62CD0B4C8EBD7D6BDDACAFD20256420DF
:100440000A0000000AC6ABD2C6B9E2B1EAB3C9B924
:10045000A62CC6ABD2C6CAFD202564200A00000027
:100460000ACCEDBCD3D0C2C4DAC8DDCAA7B0DC0A5E
:10047000000000000ACEC4BCFEB9D8B1D5CAA7B0EE
:10048000DC2CB4EDCEF3B4FAC2EB282564290A00C3
:100490000ACEC4BCFEB6C1C8A1B3C9B9A62CB6C1A8
:1004A000C8A1D7D6BDDACAFD202564200AB6C1C8C6
:1004B000A1C4DAC8DD20A3BA0A25730A000000002F
:1004C0000ACEC4BCFEB9D8B1D5B3C9B9A60A0000DA
:1004D00000B581B0ADF5805D4FF4805301AA0021D5
:1004E00008A001F0D3FB0849087038B1014607A005
:1004F00000F028FD01B00DF5805D00BD0AA000F000
:1005000021FDF7E700000000100000200AB8F1CA42
:10051000BDBBAFCAA7B0DC2CB4EDCEF3B4FAC2EBCE
:10052000282564290A0000000AB8F1CABDBBAFB390
:10053000C9B9A60A0000000010B5074C40212046AA
:1005400000F05AF8AB2000F0EDF92046BDE810406D
:10055000402100F053B80000001402402DE9F041A2
:10056000002201274FF0030C07FA02F50B682B401D
:10057000AB422CD1066853000CFA03F4A643066084
:100580000E79D0F800809E4046EA080606600E7993
:10059000012E01D0022E12D18668A64386604E79C4
:1005A000D0F808809E4046EA080686604668AE435A
:1005B000466045688E799640B6B235434560C56859
:1005C000A543C560CC799C40C3681C43C460521CE1
:1005D000102AC9D3BDE8F08110B54B07DB0E9A4055
:1005E000C90800EB8100016A0F249C40A14301620D
:1005F000016A1143016210BD418370470183704756
:100600001CB501AA694609A001F015FA084908704D
:10061000019881694089891E4143009A50438200B4
:10062000890004A000F08EFC1CBD0000000000004A
:10063000100000200AC9E8B1B8D7DCBFD5BCE4A3DC
:10064000BA2531306C75204B42A1A30ABFC9D3C370
:10065000BFD5BCE4A3BA20202531306C75204B42B5
:10066000A1A30A00FEE7FEE77047000030B50F23A4
:10067000C27801250178002A1FD0154A126802F4B9
:10068000E062C2F5E062C2F30722C2F10404D34083
:100690004278A24084781C401443220101F1E021F9
:1006A00081F80024007800F01F018D40400980008F
:1006B00000F1E020C0F8005130BD01F01F0085407E
:1006C0004809800000F1E020C0F8805130BD0000F2
:1006D0000CED00E002490843024908607047000041
:1006E0000000FA050CED00E070470000054A002903
:1006F00003D0116801431160704711688143116094
:100700007047000030380240054A002903D01168C4
:100710000143116070471168814311607047000008
:100720004438024070B5244B196801F00C01234C89
:1007300000291ED0224E04291DD008291DD0046096
:10074000196801F0F00109091E4A545C0168E14092
:1007500041601C6804F4E054A40A145D21FA04F416
:1007600084601B6803F460435B0BD25CD140C160C2
:1007700070BD0460E4E70660E2E70F4A121F1168EB
:10078000C1F38055116801F03F0135B1B6FBF1F1BD
:100790001468C4F38814614305E0B4FBF1F11468F4
:1007A000C4F3881461431268C2F30142521C520020
:1007B000B1FBF2F10160C3E7083802400024F40005
:1007C00040787D01000000202DE9F04106460D46ED
:1007D000144600F0EFFA134F40213846FFF70CFFA4
:1007E000132000F09FF8300E00F09CF8C6F307408D
:1007F00000F098F8C6F3072000F094F8F0B200F08B
:1008000091F804E0FF2000F08DF805F8010B641E5C
:10081000A4B2F7D240213846FFF7F0FEBDE8F04120
:1008200000F0C8BA00140240002904D0018841F049
:10083000400101807047018821F04001018070472C
:1008400070B5104D40212846FFF7D6FE152000F068
:1008500069F8FF2000F066F8044640212846FFF7BB
:10086000CDFEE0070CD140212846FFF7C5FEB7209A
:1008700000F058F82846BDE870404021FFF7BEBEA2
:1008800070BD0000001402402DE9F04100F092FA22
:100890000F4F40213846FFF7AFFE9F2000F042F88F
:1008A000FF2000F03FF80446FF2000F03BF805462B
:1008B000FF2000F037F8064640213846FFF79EFE3D
:1008C00000F078FA200440EA05203043BDE8F081CA
:1008D000001402400246002012890A4200D0012082
:1008E0007047808970478181704730B5028802F473
:1008F00041530A884C88CD8822438C882C4322435C
:100900000C8922434C8922438C892243CC8922437F
:100910001A430280828B22F400628283098A018258
:1009200030BD000070B505460A4C02212046FFF795
:10093000D1FF0028F9D029462046FFF7D4FF012136
:100940002046FFF7C7FF0028F9D02046FFF7C9FF70
:10095000C0B270BD005001402DE9F04188B00121C6
:100960002020FFF7C3FE01210805FFF7CDFE012778
:100970008DF81C7000248DF81E408DF81F40022554
:100980008DF81D5040200690DFF8A08006A9404653
:10099000FFF7E4FD8DF81C508DF81E408DF81F40C8
:1009A0008DF81D50052207214046FFF715FE8020D7
:1009B000069006A94046FFF7D1FD052208214046D2
:1009C000FFF70AFEE801069006A94046FFF7C6FDBC
:1009D000052209214046FFF7FFFD2E02069606A9D3
:1009E0004046FFF7BBFDADF81040ADF80C70ADF818
:1009F0000A50ADF81440ADF80840ADF80440ADF829
:100A000012404FF48270ADF80600ADF80E60084C4D
:100A100001A92046FFF769FF01212046FFF704FFE7
:100A2000FFF70EFF08B0BDE8F0810000001402409F
:100A3000005001407047000070B5044600F0BAF95C
:100A400000F03CFA0E4D40212846FFF7D5FD20204E
:100A5000FFF768FF200EFFF765FFC4F30740FFF7BD
:100A600061FFC4F30720FFF75DFFE0B2FFF75AFF15
:100A700040212846FFF7C2FDBDE8704000F09AB95A
:100A8000001402401CB50021019100912E4A10680B
:100A900040F4803010604FF4A043106800F4003040
:100AA00000900198401C0190009810B9019898425C
:100AB000F3D11068800302D50120009000E000917E
:100AC000009801283FD120484030016841F0805112
:100AD00001601E49086840F4404008601A48083028
:100AE00003680360036843F400430360036843F44E
:100AF000A0530360041F164B2360136843F08073F8
:100B0000136013689B01FCD50A6842F480320A60C6
:100B10004A68D203FCD50A6842F400320A604A6887
:100B20009203FCD50B4A40F205711160016821F077
:100B300003010160016841F0020101600168C1F335
:100B400081010229FAD11CBD00380240007000402A
:100B5000195A4007003C02407047000010B5124887
:100B6000016841F4700101601048016841F0010121
:100B700001600E4A00210832116002680C4B1A40D5
:100B80000260031D0B4A1A60026822F48022026090
:100B900006480C300160FFF775FF03494FF0006015
:100BA0008039086010BD000088ED00E00038024088
:100BB000FFFFF6FE103000248A05C943018070470C
:100BC000002904D0818941F40051818170478189D5
:100BD00021F40051818170470246002012880A42A8
:100BE00000D00120704710B540F66A13C1F34213DC
:100BF00001F01F040121A140012B07D0022B07D0D7
:100C000014303AB102680A43026010BD0C30F8E7B4
:100C10001030F6E702688A43026010BD7FB50446D3
:100C20000D46208A20F44051E88808432082A0899C
:100C300041F20C618843A9882A8911436A890243D9
:100C40001143A181A08A20F44071A8890843A082A1
:100C50006846FFF767FD1E48844202D01D48844263
:100C600001D1039800E00298A189090408D500EB9E
:100C7000C00101EB001029684900B0FBF1F007E06A
:100C800000EBC00101EB001029688900B0FBF1F016
:100C90006422B0FBF2F109010B096FF018056B43F8
:100CA00000EB8300A3891D044FF0320307D503EB4B
:100CB000C000B0FBF2F000F00700084306E003EBD1
:100CC0000010B0FBF2F000F00F00084320817FBD60
:100CD0000010014000140140C1F3080181807047F9
:100CE00030B587B001210846FFF700FD0121102033
:100CF000FFF70AFD01218805FFF7F8FC4FF4E060DB
:100D0000FFF7E8FC25208DF8180001208DF81B0066
:100D100000248DF819408DF81A4006A8FFF7A6FCAC
:100D200002208DF814008DF816408DF817408DF8CC
:100D30001500400204901C4D07220A212846FFF7A7
:100D40004BFC04A92846FFF709FC6915049107220A
:100D500009212846FFF740FC04A92846FFF7FEFBBF
:100D60004FF4E1300090ADF80C400C20ADF80A00D3
:100D7000ADF80840ADF80640ADF804400B4C6946AC
:100D80002046FFF74BFF40F2255501222946204619
:100D9000FFF729FF29462046FFF70EFF01212046D5
:100DA000FFF70EFF07B030BD000002400010014009
:100DB000FEE7000010B5094C40212046FFF71CFC5F
:100DC0000520FFF7AFFDFF20FFF7ACFDC007FAD10C
:100DD0002046BDE810404021FFF710BC001402403F
:100DE0002DE9F05F05460E46140A02F0FF09E8B24D
:100DF0004142CFB2A9EB070101F0FF0B4FF480781D
:100E0000002812D0E8B24042C0B205EB000A3CB361
:100E1000D01B80B200F0FF09040A3A46314628464A
:100E200000F05EF855463E4438E07CB94A4631460B
:100E30002846BDE8F05F00F053B8424631462846E8
:100E400000F04EF805F5807506F58076641EE4B274
:100E5000F3D24A4631462846BDE8F05F00F040B87C
:100E6000B9450BD93A463146284600F039F8504684
:100E7000F1195A46BDE8F05F00F032B83A46314603
:100E80002846BDE8F05F00F02BB8424631462846C0
:100E900000F026F805F5807506F58076641EE4B24C
:100EA000F3D2B9F1000F06D04A4631462846BDE8D4
:100EB000F05F00F015B8BDE8F09F000010B5074CDA
:100EC00040212046FFF798FB0620FFF72BFD204628
:100ED000BDE810404021FFF791BB00000014024024
:100EE0002DE9F04106460D461446FFF763FFFFF774
:100EF000E5FF134F40213846FFF77EFB1220FFF736
:100F000011FD300EFFF70EFDC6F30740FFF70AFD97
:100F1000C6F30720FFF706FDF0B2FFF703FD03E07D
:100F200015F8010BFFF7FEFC641EA4B2F8D24021B5
:100F30003846FFF763FBBDE8F041FFF73BBF000019
:100F4000001402400FB4054B10B503A9044A0298DF
:100F500000F018F810BC5DF814FB0000112B00081D
:100F60001C00002002E008C8121F08C1002AFAD1A4
:100F700070477047002001E001C1121F002AFBD119
:100F8000704700002DE9FF4F8BB0884605460026CC
:100F900006E025280BD0DDE90D1290476D1C761C6C
:100FA00028780028F5D10FB03046BDE8F08F002436
:100FB000A146A2460122AE4900E0044315F8013FD4
:100FC000203B02FA03F00842F7D128782A2810D0F3
:100FD0006FF02F022878A0F13001092915D809EB0C
:100FE000890102EB410144F0020400EB01096D1C90
:100FF000F0E758F8041B5FEA010903D544F40054F4
:10100000C9F1000944F002046D1C28782E2817D17C
:1010100015F8010F44F004042A280ED06FF02F02B7
:101020002878A0F1300109290AD80AEB8A0102EBDD
:10103000410100EB010A6D1CF2E758F804AB6D1C8E
:1010400028786C280FD006DC4C2817D068280DD0E3
:101050006A2814D104E0742810D07A280FD10DE04A
:1010600044F400140AE044F4801401E044F4401411
:101070006978814202D104F580146D1C6D1C2878BA
:10108000692865D006DC00288DD0632827D0642825
:1010900006D15DE06E2808D073282AD0752877D055
:1010A000DDE90D129047761CE0E0C4F302500228FF
:1010B00009D003280DD0D8F8001004280DD00E60F8
:1010C00008F10408D2E0D8F80010F217C1E9006274
:1010D000F6E7D8F800100E80F2E70E70F0E718F887
:1010E000041B8DF8001000208DF80100EB46012054
:1010F00003E058F804BB4FF0FF3061074FF00007E2
:1011000001D40AE07F1C57450DDA8742FADB1BF851
:1011100007100029F6D106E07F1C8742FCDB1BF894
:1011200007100029F8D1DDE90D23A9EB070081465E
:10113000214600F0B1F83044C61904E0DDE90D1293
:101140001BF8010B90477F1EF8D22146484688E0E5
:1011500058F8040BC4F302514FF00A0B032900D1D5
:1011600000B2042900D140B2002802DA40422D2109
:1011700002E0210505D52B218DF82410012104E082
:1011800006E0E10710D02021F6E708AF089113E050
:1011900058F8040BC4F302514FF00A0B032900D195
:1011A00080B2042900D1C0B20021EEE75946FFF712
:1011B00032F8303107F8011D0028F7D1ADEB0700F8
:1011C00000F1200B600702D524F4803401E04FF0D9
:1011D000010ADA4502DDAAEB0B0000E0002082469E
:1011E00000EB0B0108980144A9EB01000A90E00311
:1011F00006D4DDE90D2321460A9800F04DF8064497
:101200004FF0000908E009A911F80900DDE90D1205
:10121000904709F10109761C08998945F3DBE00341
:101220000CD5DDE90D2321460A9800F035F8064477
:1012300004E0DDE90D1230209047761CBAF1000180
:10124000AAF1010AF5DC05E0DDE90D1217F8010B42
:101250009047761CBBF10001ABF1010BF4DC0A985E
:101260002146DDE90D2300F005F806446D1C97E6E4
:10127000092801002DE9F041044600251E461746C5
:10128000880404D405E039462020B0476D1C641E54
:10129000F9D52846BDE8F0812DE9F0410446002546
:1012A0001E469046C80301D5302700E02027880459
:1012B00004D505E041463846B0476D1C641EF9D59B
:1012C0002846BDE8F081000010B504460020E0701B
:1012D000401E2063204601F07DFE08B1042010BDB1
:1012E00004F2322001F0DBFCA0F52A41553901D08F
:1012F000032010BD94F83400E92803D0EB2801D076
:10130000E8280DD1032209A104F16A0001F006FDCD
:1013100040B1052206A104F1860001F0FFFC18B1DE
:10132000022010BD002010BD002010BD4641540019
:10133000464154333200000000E0401C02780AB1FC
:101340008A42FAD100787047891E8269921E8A42C9
:1013500001D800207047C26A408900FB0120704715
:101360002DE9F04180460F46D8F80050002F08D0F4
:101370003946404601F0DEFB022809D20120BDE8D3
:10138000F0812E6916B1A869B04207D8012605E0A0
:10139000411CF4D0A9698142F1D83E466869D0B1B8
:1013A0000024BE4215D1741CA869A04200D80224B2
:1013B0002146404601F0BEFB0128E0D0411CDED0B2
:1013C00038B12869022803D3A969814200D90646A9
:1013D000002414B118E00020D1E73446641CA86949
:1013E000A04204D80224022E01D20020C7E72146E1
:1013F000404601F09FFB38B10128C0D0411CBED04F
:10140000B442EBD10020BAE74FF0FF363246214616
:10141000284601F0F9FD28B927B122463946284669
:1014200001F0F2FD20B101280FD001242046A6E7EB
:101430002C61D5E90501891E884201D8401E6861EA
:10144000287940F001002871F0E73446EEE700000B
:101450002DE9F05F8B46DBF8009000F120070B22AE
:101460002021384601F06FFC00252E464FF0080879
:101470003046761C19F80040202C16D92F2C0ED09F
:101480005C2C0CD02E2C01D045451BD3B8F10B0F92
:1014900001D02E2C12D00620BDE8F09F761C19F842
:1014A00006002F28FAD05C28F8D009EB0600CBF80C
:1014B0000000B5B33878E52836D037E008254FF07E
:1014C0000B08D5E7802C03D31C4904F07F000C5C8B
:1014D000204600F0D8F898B13046761C19F800A0E4
:1014E000504600F0D6F818B1A8F10100854201D3AA
:1014F0000620D1E7681C7C55451C07F800A0B7E71B
:1015000021460FA0FFF718FF08B10620C4E7A4F199
:101510006100192801D8203CE4B228466D1C3C54D7
:10152000A6E7FFE70620B7E705203870202C01D892
:10153000042000E00020F8720020ADE7D833000856
:10154000222A2B2C3A3B3C3D3E3F5B5D7C7F0000DA
:101550002DE9FF4F81B09B466A460121019800F0BA
:101560000BFA18B1012005B0BDE8F08FDDF800904E
:101570004FF03F080826F10101E07006060E2EB17B
:1015800006FB08F0B9FBF0F08842F6D806B9FF2652
:101590004FF480520021584601F0D5FB0BF5DF7463
:1015A0004FF0000A454657E0029850F82A70642F21
:1015B00008D801D14F4605E04FF06400B9FBF0F0C8
:1015C00007FB00F705EB0700484501D8A84201D208
:1015D000A9EB0507F7B3294604F1080001F039FE2D
:1015E000394604F10C0001F034FE0398207108FB29
:1015F00006F00246B5FBF0F0B5FBF8F1B1FBF6F3EF
:1016000006FB1311B5FBF8F308FB13535B1C617069
:10161000C02101EA900C4CEA030C84F802C0E0708F
:101620003D442B466D1EB5FBF2F0B5FBF8F2B2FB64
:10163000F6F706FB1727B5FBF8F208FB1252521C0F
:10164000677101EA90011143A171E07110340AF150
:10165000010A00E006E01D46BAF1040F02D20DB106
:101660004D45A1D34AF655210BF5FF7001F0F9FD68
:10167000012300225946019800F0B2F908B1012077
:1016800071E700206FE7002801D00020704700209C
:101690007047002801D000207047002070472DE9D6
:1016A000F04105460E462F680021284600F0FEF85E
:1016B00088B900243846A96901F08CFC58B9E96959
:1016C0000A78E52A0CD05AB100240121284600F0FE
:1016D00064F80028EED0042800D10720BDE8F0818E
:1016E000641CB442F7D0F0E72DE9F04105460C4602
:1016F000284601F0FFFD10B10120BDE8F081214630
:101700002846FFF721FE06462E6305F134004FF40C
:1017100080520021804601F016FB0127002400E0E2
:101720003C446889A04207D9321968783B46414653
:1017300000F056F90028F3D06889A04201D00120BA
:10174000DBE70020D9E770B5044626680021204673
:1017500000F0ACF800281DD13046A16901F03AFC38
:101760000546B5B9E0690178A9B1C17A01F03F0138
:10177000A171C17A090705D40B2204F1200101F0FF
:10178000CDFA30B10021204600F007F80546002DC3
:10179000E2D0284670BD0425FBE72DE9F04704465A
:1017A00089462668276920374FF00008B7F5001FE3
:1017B00001D3C4F81880A06930B1B189B7FBF1F248
:1017C00001FB127119B148E00420BDE8F087401C0C
:1017D000A061616971B1B0897289B7FBF0F0521EE6
:1017E00010423AD1204601F0A5F90546012D09D84D
:1017F0000220EAE73089B0EB571F2ED8C4F81880D2
:101800000420E2E7681C16D0B069A8421FD8B9F1DD
:10181000000F12D020466169FFF7A2FD054685B191
:10182000012D10D0681C10D029463046FFF75CFF10
:1018300068B10120C9E70120C7E7C4F81880042077
:10184000C3E70720C1E70220BFE70120BDE76561CC
:1018500029463046FFF778FDA0612761B089B7FBC4
:10186000F0F100FB117030443430E0610020ACE74F
:1018700070B50446266801212046FFF710FF054693
:1018800095B93046A16901F0A5FB054665B920224E
:101890000021E06901F057FA0B2204F12001E06910
:1018A00001F048FA0120F070284670BD2DE9F041A2
:1018B00007460E463D68B6F5001F01D2F00602D07D
:1018C0000220BDE8F0813E61BC681CB9287803287D
:1018D00000D3AC6A2CB1B5F80A80A88908FB00F8DF
:1018E0001AE02889B0EB561F01D80220E9E7A86A60
:1018F000B86118E02146384601F01CF90446601C26
:1019000006D0022C02D3A869A04203D80220D8E74F
:101910000120D6E7A6EB08064645EBD2214628462D
:10192000FFF712FDB8617C61B86970B1A989B6FB97
:10193000F1F10844B861A889B6FBF0F100FB116031
:1019400028443430F8610020BBE70220B9E710B525
:101950000146012000290ED1FEF7FEFF4FF6FF7071
:10196000401E80B20028FBD1FEF7E6FDBDE8104026
:10197000002000F027B810BD03460420002B0ED134
:101980008002012904D0022904D0032906D103E0F2
:10199000106003E0108001E001201060002070471B
:1019A00010B504460420002C0AD102F580524FF6EF
:1019B000FF7000EA033310031A46FEF705FF00200C
:1019C00010BD000010B50124002805D1FEF75CFF12
:1019D0000249884200D10024204610BD1940EF0082
:1019E00070B505460E461C460420002C11D0002D73
:1019F0000ED102F5805215032846FFF71DF84FF669
:101A0000FF7000EA043231462846FFF7E9F900206A
:101A100070BD042070BD38B50446204600F0E2FEDB
:101A2000002807D16946204601F088FC002801D132
:101A30000021216038BD2DE9F74386B08846144661
:101A4000002205A906A801F085F90746380058D1FB
:101A5000059820600598D0E90519A9F10202914284
:101A600002D8C8F800104CE000240178012903D006
:101A7000466A0025BDB11EE002250190294601A855
:101A800001F058F8411C03D0012803D020B104E034
:101A900001272EE002272CE0641C05986D1C80694C
:101AA0008542EBD325E03146761C059801F092FA89
:101AB000074638001DD105980178022906D0284430
:101AC000343001F0E1F8000108D008E02844343057
:101AD00001F0E5F800B9641CAD1C01E0641C2D1D8B
:101AE00005988089B5FBF0F100FB1155B9F10109AA
:101AF000C0D1C8F8004005984461017941F0010166
:101B0000017109B03846BDE8F0832DE9F84F04466D
:101B10000D466946204601F011FC0746380000D109
:101B2000677C17B13846BDE8F88FE068A84203D259
:101B3000217C890700D4054660694FF00008C4F88D
:101B400014804FF00109002D63D000994E898989D6
:101B50004E434FF0020A68B1691E401EB1FBF6F118
:101B6000B0FBF6F2914205D3711E884360612D1AD5
:101B7000A1690CE0A16849B900212046FFF7F0FBFC
:101B80000146012905D0481C07D0A160A16159BBBD
:101B90003FE084F811A00220C5E784F811900120ED
:101BA000C1E7AD1B606930446061207C800706D5C9
:101BB0002046FFF7D5FB014629B9002516E020464F
:101BC00000F0B8FF0146481C09D0012903D900984C
:101BD0008069884207D884F811A00220A3E784F81E
:101BE000119001209FE7A161B542DAD860692844CD
:101BF000606100988289B5FBF2F302FB135242B197
:101C0000FFF7A2FB48B300998989B5FBF1F101EB1D
:101C10000008E1686069884204D9E060217C41F0F5
:101C200040012174009A9189B0FBF1F301FB13008C
:101C300048B3E069404526D0217C04F12806090616
:101C400013D555780246012331462846FFF7C8FED2
:101C500038B184F81190012065E784F811A00220C2
:101C600061E7207C00F07F00207400980123424649
:101C700040783146FFF794FE18B184F811900120A6
:101C800051E7C4F81C8038464DE700002DE9FF4FAE
:101C90008DB00C46154698460DA800F0C2FF0028EE
:101CA00003DA0B2011B0BDE8F08FFB49002651F894
:101CB000201001B10E70C0B20B9004B9F74C0B9814
:101CC000FFF745FEC10701D00320EBE7400701D530
:101CD0000A20E7E7606809904FF0010938B909AABE
:101CE00003210B98FFF748FE08B1CDF8249009981E
:101CF0004FF4004720B1B84202D8411E084201D03B
:101D0000CDF824900AAA02210B98FFF735FE08B1FE
:101D10000120C7E7BDF82800A0F50071B1F5606F9C
:101D200002D8411E084201D00120BBE7217801F012
:101D30000F010C9161784A1E012A00D901210291FC
:101D4000A1684A1EBA4205D24209B1FBF2F302FB76
:101D500013120AB14FF400710191E168B1F1807F73
:101D600002D84A1E114200D00021B1FBF0F7B8FBA7
:101D7000F0FBBBF1000F0BD065B10020079006907F
:101D800007AA01210B98FFF7F7FD28B1012089E789
:101D9000112087E7112085E70C98000706D40798E3
:101DA0003F2803D93F2106913F38079007998029A2
:101DB00001D20E2076E7802F00D980270C9880076B
:101DC00002D50C98C0070AD00C98C00709D002268B
:101DD00040F6F5733C46032E05D064B33BE0032682
:101DE000F6E713205EE77CB94FEA51480020012452
:101DF000DFF8A8C2ACF10E0C01E0401C64003CF816
:101E000010200AB14245F8D9B1FBF4F0BDF8282002
:101E100002EB800C0CF1070CBCFBF2F94FF0200830
:101E2000002203924FF6F572904202D99C4A9042EA
:101E30002DD90E2036E74FEA113800200124DFF8B3
:101E40005CC2ACF11C0C01E0401C64003CF81020AA
:101E50000AB14245F8D9B1FBF4F0984203D9042203
:101E600002EB400206E0012600EB4000401C03228A
:101E700002EB5002BDF828000244521EB2FBF0F9FA
:101E80004FF00108019A5201B2FBF0F0039006985E
:101E900000EB080A03980AEB0002029809FB0022F3
:101EA000099802EB000CACF1010C401E2CEA000C6E
:101EB000ACEB0200032E1AD0DDF808C0B0FBFCFE2C
:101EC0000CFB1E0CBCF1000F04D0401E08F10108F1
:101ED0000AF1010ADDF808C0B0FBFCF08144069865
:101EE00002EB0412101A884204D90E20DAE680446C
:101EF0008244F4E70298A1EB080209FB1022039840
:101F0000101AB0FBF4F00890032E0AD108984FF68F
:101F1000F572904205D817B967087FF45BAF0E20C1
:101F2000C0E6022E1FD108984FF6F572904211D9E3
:101F30002FB94020B0EB440F01D367004AE70C985B
:101F4000800701D5032645E717B96700802FF5D92B
:101F50000E20A7E60898984205D817B96700802F89
:101F6000ECD90E209EE6012E04D10898984201D9A2
:101F70000E2097E6BDF828200021284600F0E3FE59
:101F80000B2248A1284600F0D5FEBDF8281005F127
:101F90000B0001F066F96C731FFA88F105F10E0071
:101FA00001F05FF902982874032E0FD0019881B2D6
:101FB00005F1110001F055F90799B1F5803F07D2FD
:101FC00089B205F1130001F04CF905E00020EEE7BD
:101FD00005F1200001F03DF9F82068753F2105F179
:101FE000180001F03EF9FF2105F11A0001F039F95E
:101FF00005F11C00069901F02CF980272C494FF0BF
:102000002908032E24D005F1270001F022F91FFA38
:1020100089F105F1160001F024F985F8247085F89E
:102020002680132223A105F12B0000F083FE4AF63F
:10203000552705F5FF703946804601F012F9012356
:102040002946069A0B98FFF7CBFC20B3012029E61E
:1020500005F1430001F0FDF8494605F1240001F0C7
:10206000F8F8022105F12C0001F0F3F8012105F147
:10207000300001F0F6F8062105F1320001F0F1F828
:1020800085F8407085F8428013220FA105F14700C2
:1020900000F050FECBE721E0180000207434000867
:1020A000F5FFFF0FEBFE904D53444F53352E30009C
:1020B0000000214E4E4F204E414D4520202020460D
:1020C00041542020202020004E4F204E414D4520DD
:1020D000202020464154333220202000032E32D1CC
:1020E000069A0123921D29460B98FFF779FCBDF84B
:1020F00028200021284600F026FE5549284601F0F8
:10210000A8F8544905F5F27001F0A3F8089905F50F
:10211000F470491E01F09DF8022105F5F67001F0FA
:1021200098F83946404601F09CF8069A0123D21DE2
:1021300029460B98FFF754FC069A0123521C2946A6
:102140000B98FFF74DFCBDF8280000210BFB00F2B7
:10215000284600F0F8FD0020009038E0032E0BD058
:10216000012E1AD06FF00701284601F072F84F4691
:102170005F4514D9D84613E06FF00701284601F0F7
:1021800068F84FF0FF31281D01F063F86FF07041DF
:1021900005F1080001F05DF8E9E72F49E4E7B846EA
:1021A0004346524629460B98FFF71AFC08B1012016
:1021B00078E5BDF828200021284600F0C4FDC2447F
:1021C000A7EB0807002FD3D10098401C009002997C
:1021D00000988842C2D3032E00D0039C5C4501D9ED
:1021E0005F4600E027463B46524629460B98FFF7DC
:1021F000F7FB08B1012055E5BA44E41B002CEDD1F2
:10220000032E05D00798B0F5803F03D3062204E0E3
:102210000C2202E0022E16D001220C9800070AD4EC
:1022200007980490002005902B4604A90B98FFF70F
:102230008FF90028BCD1002211460B98FFF79CFBB8
:1022400018B101202EE50422E7E700202AE500006E
:102250005252614172724161F8FFFF0017B581B0BF
:10226000144602980090684600F0DBFC002802DA71
:102270000B2004B010BD0A4B53F82010002201B10E
:102280000A70019901B10A7043F820102CB10022A4
:1022900001A902A800F05EFDEBE70020E9E70000DD
:1022A000180000202DE9F7438CB00546002D0BD017
:1022B00002F03F06324669460DA800F04BFD044689
:1022C0004FF0000824B1C2E009200FB0BDE8F08350
:1022D0000098019001A80D9900F0DAFB0446200057
:1022E00004D19DF82F00000600D5062416F01C0F1F
:1022F00044D044B1042C03D101A8FFF7B9FA044635
:1023000046F0080609E09DF80A0010F0110F01D010
:10231000072402E0700700D5082474BB300739D5C4
:102320000899009800F09DFC074608984B490E302C
:1023300000F08FFF08992020C872002208990098A9
:1023400000F073FF089800211C3000F082FF009815
:102350000121C1708FB1D0F830900022394601A818
:1023600000F027FF0446200014D14946009800F0F1
:1023700031FE044600987F1E07610BE054B99DF8BA
:102380000A00C10601D5042404E0B10702D5C00744
:1023900000D0072444B9300701D546F04006009824
:1023A000006B286208986862ECBB0899009800F0FE
:1023B00058FCA86008981C3000F066FCE8600098A3
:1023C00028600098C088A8802E7485F81180C5F810
:1023D0001C80C5F8148005F128004FF480520021BC
:1023E000814600F0B0FCB00631D5EE68DEB16E611A
:1023F0000098478980894743A9680AE0284600F089
:1024000099FB0146012900D80224481C00D101246F
:10241000F61B0CB9BE42F1D8A96124B90098828993
:10242000B6FBF2F300E012E002FB13627AB1FEF7B2
:102430008BFF88B100998A89B6FBF2F20244EA6107
:10244000487801234946FFF7ABFA00B101240CB1EB
:10245000C5F80080204638E70224F8E70000214E46
:102460000FB42DE9F0439DB0014609A800F097FE96
:1024700026A81C900DF10408259810F8011B259042
:10248000002973D0252903D009A800F056FEF3E7F0
:1024900000252E4610F8011B2590302902D02D2949
:1024A00005D008E0012510F8011B259003E0022566
:1024B00010F8011B25902A2910D11C9840C81C90A7
:1024C000259810F8011B25900CE006EB860001EB27
:1024D0004006303E259810F8011B2590A1F13000F0
:1024E0000928F2D96C2901D04C2905D145F0040501
:1024F000259810F8011B2590002937D00A46A2F133
:102500006100192801D8203AD2B24F2A42D006DC05
:10251000422A3DD0432A33D0442A06D13CE0532AF4
:1025200007D0552A38D0582A38D009A800F005FE1F
:10253000A2E71C9880C81C90002400E0641C385D51
:102540000028FBD1A80704D50CE0202109A800F041
:10255000F4FD2046641CB042F7D303E07F1C09A8B9
:1025600000F0EBFD39780029F8D104E073E0202178
:1025700009A800F0E2FD2046641CB04287D2F6E7CD
:102580001C9810F8041B1C9009A800F0D6FD73E7F6
:10259000022304E0082302E00A2300E01023680776
:1025A00003D51C9C01CC1C9404E0442A05D01C9C3F
:1025B00001CC1C94442A04D008E01C9C01CC1C943F
:1025C000F8E7002802DA404245F008050024B0FB95
:1025D000F3F203FB1202D2B2B0FBF3F0092A04D9E2
:1025E000782917D007273A44D2B230322746641CE4
:1025F00008F8072008B1202CE9D3280704D52D229C
:102600002046641C08F800202746E80704D04FF055
:10261000300903E02727E6E74FF02009A80704D593
:1026200007E0494609A800F088FD38467F1CB04203
:10263000F7D3641E09A818F8041000F07EFD002CE2
:10264000F7D103E0494609A800F077FD38467F1C22
:10265000B0429CD2F6E709A800F08CFD1DB0BDE8A1
:10266000F0035DF814FB2DE9FC5F0446884616462E
:1026700099460020C9F800006946204600F05EFE39
:10268000002812D1607C00280FD1207CC0070BD01D
:102690006169E068401A864200D9064604F12800C4
:1026A0004FF0010A019097E00720BDE8FC9F009AD7
:1026B00060699189B0FBF1F301FB1303002B6CD12E
:1026C000B0FBF1F55189491E0D4075B940B1204666
:1026D000A16900F02FFA022804D202206074E4E716
:1026E000A068F8E7411C1CD0A061A1690098FEF722
:1026F0002BFED0B100EB050B00988189B6FBF1F7FA
:102700004FB34189EA198A4200D94F1B40783B46B2
:102710005A464146FFF744F950B184F811A0012010
:10272000C3E784F811A00120BFE702206074BCE772
:10273000207C00060BD5E069A0EB0B00B84206D266
:1027400000998A89019900FB028000F0F3FA009851
:1027500085897D4336E0E2695A451CD0217C090613
:102760000DD5407801230199FFF73AF918B184F8A3
:1027700011A0012099E7207C00F07F0020740098D0
:1027800001235A4640780199FFF70AF918B184F8F5
:1027900011A0012089E7C4F81CB000986169808904
:1027A000B1FBF0F200FB1212851AB54200D9354692
:1027B000B1FBF0F200FB1210011928312A46404605
:1027C00000F0B8FA761BD9F800002844C9F80000D8
:1027D000A844606928446061002E7FF468AF00203F
:1027E00063E70000F8B504466946204600F0A6FD00
:1027F00000280ED1217C4A060BD508060ED500987C
:10280000E2690123407804F12801FFF7E9F808B1F3
:102810000120F8BD207C00F07F002074144E216A56
:10282000009800F0D7FB0028F3D1656AE87A40F001
:102830002000E8722946A268206800F0F6FC05F145
:102840001C00E16800F005FD314605F1160000F0BE
:1028500000FD002105F1120000F003FD00980121A8
:10286000C17000F003FD217C01F0BF012174F8BDAF
:102870000000214E2DE9FC5F044688461646994625
:102880000020C9F800006946204600F057FD0028E6
:1028900006D1607C002803D1207C800702D4072069
:1028A000BDE8FC9F6069811900D3C64304F128008C
:1028B0004FF0010A0190B1E0009A60699189B0FB84
:1028C000F1F301FB1303002B7CD1B0FBF1F551892F
:1028D000491E0D40F5B968B12046A169FEF740FDDB
:1028E000002870D001280DD0411C0ED0A061A16835
:1028F00079B10FE0A0680028F2D100212046FEF750
:102900002FFDEDE702206074CAE784F811A00120D2
:10291000C6E7A060207C00060FD50098E26901237D
:1029200040780199FFF75CF818B184F811A00120F4
:10293000B6E7207C00F07F002074A1690098FEF7C4
:1029400003FDB0B100EB050B00988189B6FBF1F7F0
:1029500037B34189EA198A4200D94F1B40783B4678
:102960005A464146FFF73CF830B184F811A00120E7
:1029700096E70220607493E7E069A0EB0B00B84291
:102980000AD200998A8900FB0281019800F0D2F9ED
:10299000207C00F07F002074009885897D432EE024
:1029A000E169594510D0E268616991420CD24078E2
:1029B00001235A460199FEF7F3FF28B184F811A0CC
:1029C00001206DE702E02CE0C4F81CB000986169BA
:1029D0008089B1FBF0F200FB1212851AB54200D9D2
:1029E0003546B1FBF0F200FB1210204428302A4695
:1029F000414600F09FF9207C40F080002074761B57
:102A0000D9F800002844C9F80000A84460692844A7
:102A10006061E168884200D80846E060002E7FF4DB
:102A20004BAF207C40F040002074002038E72DE9B7
:102A3000FF4106460D4600213046FEF745FC0228C0
:102A400003D0032821D2002D1FD000246F4606EBAF
:102A5000041000F5FD7000F017F947F82400641C1D
:102A6000042CF4D30DB16C1E00E0002457F82410A0
:102A700019B13046FEF728FC00E00320002D04D1F8
:102A8000022802D3641C042CF0D304B0BDE8F0810A
:102A900073B50446256801E0401C01900198017857
:102AA0002F29F9D05C29F7D00020A0600198007888
:102AB000202807D2802084F82B0000212046FEF732
:102AC000F5FE7CBD01A92046FEF7C2FC0028F8D126
:102AD0002046FEF738FE94F82B1028B10428F0D1D8
:102AE0004907EED405207CBD4907FCD4A079C00677
:102AF00001D405207CBDA9892069B0FBF1F201FB5E
:102B0000120041193431284600F0ABF8A060D9E733
:102B100070B50446064DE1B22846FEF7DDF8802187
:102B20002846FEF759F80028F9D0204670BD00006D
:102B3000001001402DE9F0410D460468022D02D33A
:102B4000A069A84201D8012609E04FF0FF3620789D
:102B5000012807D0022835D003284AD00126304664
:102B6000BDE8F08105EB5507A089616AB7FBF0F07D
:102B70000144204600F02EFA0028F0D1A089394601
:102B8000B1FBF0F200FB121121447F1C91F834805C
:102B9000B7FBF0F0616A0144204600F01BFA002800
:102BA000DDD1A089B7FBF0F100FB1170204490F853
:102BB000340048EA0020E90701D00609CFE7C0F356
:102BC0000B06CCE7A089616A4008B5FBF0F0014430
:102BD000204600F0FFF90028C1D1A1896800B0FBB0
:102BE000F1F201FB12002044343000F058F80646A0
:102BF000B5E7A089616A8008B5FBF0F00144204682
:102C000000F0E8F90028AAD1A189A800B0FBF1F2F0
:102C100001FB12002044343000F036F820F07046FA
:102C20009DE730B505464FF0FF3029680C46002C73
:102C300008D011F8012B212A01D33A2AF9D13A2AD6
:102C400001D0002030BD01232278303A092A03D870
:102C5000A41C8C4200D11346012BF3DA18462960DC
:102C600030BD70B506460D4605F11A0000F017F8A4
:102C700004463078032805D105F1140000F00FF860
:102C800044EA0044204670BDC178827842EA0121BE
:102C9000427842EA0121007840EA012070474178F9
:102CA000007840EA01207047FEF71AF801220CA1D3
:102CB0000C48FFF7D3FA0C49087060B101460BA02D
:102CC000FEF740F9FDF704FCFDF79AFCFDF7CEFA9C
:102CD000FDF796FCFEE70DA0FEF734F9F2E70000E1
:102CE0000000000020000020100000200A4661744F
:102CF0004673B9D2D4D8CAA7B0DC2CB4EDCEF3B4A5
:102D0000FAC2EB282564290A000000000A46617413
:102D10004673B9D2D4D8B3C9B9A60A0010B510F811
:102D2000013B11F8014B1B1B521E01D0002BF6D0AA
:102D3000184610BD002A05D011F8013B00F8013BF0
:102D4000521EF9D17047C9B200F8011B521EFBD1C7
:102D5000704700002DE9F0410E4617464FF000087D
:102D6000C6F80080FFF75DFF0546280002D50B205E
:102D7000BDE8F081934850F825409CB1346007F0DD
:102D8000FE06207820B16078FEF71CFEC1070BD04C
:102D900084F80080E8B26070FEF7D9FDC1070AD060
:102DA0000320E5E70C20E3E71EB1400701D50A2028
:102DB000DEE70020DCE71EB1400701D50A20D7E797
:102DC000607804F10C020221FEF7D6FD08B1012063
:102DD000CEE7A089A0F50071B1F5606F02D8411E61
:102DE000084201D00120C3E700212046FFF71FFE63
:102DF000042803D0022803D30D20B9E70120B7E748
:102E0000266B04F13F00FFF74AFFA189884201D0F9
:102E10000D20ADE704F14A00FFF741FF18B904F1B6
:102E20005800FFF731FFE06194F84470A770012F5C
:102E300003D0022F01D00D209AE7474394F84100B8
:102E4000608110B1411E084201D00D2090E704F1CD
:102E50004500FFF724FF2081A1894909B0FBF1F269
:102E600001FB120008B10D2082E704F14700FFF7D3
:102E700016FF054625B904F15400FFF705FF054686
:102E800004F14200FFF70BFF014651B1A0892389ED
:102E90004009B3FBF0F0CA190244954203D20D2059
:102EA00066E70D2064E7A81A6589B0FBF5F070B3FA
:102EB0000025DFF814C1604500D803254FF6F57CE6
:102EC000604500D8022540F6F57C604500D8012514
:102ED00005B3801CA0612662314461623244E26223
:102EE000032D19D05BB33944A162022D29D000F023
:102EF000010100EB400001EB5000A189401E084495
:102F0000B0FBF1F0E16988421DD90D2030E7FFE701
:102F10000D202DE70D202BE704F15E00FFF7BFFE2B
:102F200008B10D2024E7208908B10D2020E704F125
:102F30006000FFF7A9FEA062A0698000DDE70D2018
:102F400016E74000D9E74FF0FF3060612061802034
:102F50002071032D2CD104F16400FFF7A0FE01289D
:102F600026D1711C204600F035F808BB84F8048097
:102F700004F23220FFF793FEA0F52A41553917D10C
:102F800004F13400FFF780FE1049884210D104F5A7
:102F90000670FFF779FE0E49884209D104F50770E3
:102FA000FFF772FE606104F50870FFF76DFE2061A7
:102FB00025700449091F0888401C0880E080002013
:102FC000D6E6000018000020F5FFFF0F52526141C5
:102FD0007272416170B504460E460025206BB04206
:102FE00010D0204600F086F905465DB960780123CF
:102FF000324604F13401FEF7D3FC10B14FF0FF3636
:1030000001252663284670BD2DE9F04704460D468C
:1030100017460226022D4ED3A069A8424BD920782C
:103020004FF00109012804D0022845D0032842D1DD
:103030005CE005EB5508A089616AB8FBF0F001443B
:103040002046FFF7C7FF0646002E73D14046A189F0
:1030500008F10108B0FBF1F201FB1200204434300A
:10306000E90704D00178FAB262F31F1100E0394693
:10307000017084F80390A089616AB8FBF0F0014404
:103080002046FFF7A7FF0646300053D1A089B8FBC2
:10309000F0F100FB118020443430E90702D0C7F37F
:1030A000071105E00178C7F3032201F0F001114395
:1030B000017084F803903DE0A089616A4008B5FB87
:1030C000F0F001442046FFF785FF0646300031D17D
:1030D000A1896800B0FBF1F201FB120020443430FA
:1030E000B9B200F0BEF884F8039023E0A089616AC9
:1030F0008008B5FBF0F001442046FFF76BFF064661
:10310000300017D1A089AD00B5FBF0F100FB1150E4
:1031100020443430FFF7B8FD67F31B000146A08957
:10312000B5FBF0F200FB12502044343000F091F86F
:1031300084F803903046BDE8F087F8B5044660682F
:10314000002816DBA668451C204401733C2D0DDBCE
:103150006B462A4604F10C012068FFF78BFB0098B0
:10316000A84201D1002501E04FF0FF356560761CD3
:10317000A660F8BD38B504466268002A0CDB6B46D1
:1031800004F10C012068FFF775FB28B9606800990D
:10319000884201D1A06838BD4FF0FF3038BD70B50E
:1031A00005460C464C2200212846FFF7CCFD2C603A
:1031B00070BD2DE9F0410E46074611463C68022ECF
:1031C00002D3A069B04202D80220BDE8F08131B13B
:1031D0004FF0FF322046FFF717FF0028F5D13146A8
:1031E0003846FFF7A7FC0546280018D0012D18D057
:1031F000681C18D0002231462046FFF705FF002842
:10320000E3D1D4E90510821E914205D2491C6161C7
:10321000217941F0010121712E46B042DFD8002012
:10322000D3E70220D1E70120CFE770B506460C4670
:103230001546A9B204F11A0000F013F830780328FB
:1032400006D1290C04F11400BDE8704000F009B863
:1032500070BD0170090A4170090A8170090AC170C4
:1032600070470170090A41707047000070B504464C
:10327000204600F03FF80546B5BB207803282CD146
:103280002079012829D1020304F1340000210646E7
:10329000FFF759FD4AF6552104F23220FFF7E1FF0E
:1032A00012493046FFF7D5FF114904F50670FFF7C4
:1032B000D0FF04F507706169FFF7CBFF04F50870D4
:1032C0002169FFF7C6FF226A521C2263607801233E
:1032D0003146FEF785FB0020207100226078114600
:1032E000FEF74AFB00B10125284670BD52526141EC
:1032F0007272416170B504460025E078002809D05B
:1033000004F13401607801230E46226BFEF768FB5E
:1033100010B10125284670BD0020E070616A206B65
:10332000421AE1698A42F5D2A278022AF2D1421801
:10333000607801233146FEF753FBEBE770B5044696
:103340000E460925002C0DD0206858B1017849B1EE
:10335000A188C288914205D14078FEF733FBC007AF
:1033600000D100251DB100203060284670BD2068C6
:10337000FAE700004641544653B6C1D0B4CEC4BCAF
:10338000FEB2E2CAD400000000000000000000000D
:10339000000000000000000000000000000000002D
:1033A000000000000000000000000000000000001D
:1033B000000000000000000000000000000000000D
:1033C00000000000000000000000000000000000FD
:1033D0000000000000000000809A45418E418F806F
:1033E0004545454949498E8F9092924F994F555581
:1033F00059999A9B9C9D9E9F41494F55A5A5A6A76B
:10340000A8A9AAABACADAEAFB0B1B2B3B4B5B6B7C4
:10341000B8B9BABBBCBDBEBFC0C1C2C3C4C5C6C7B4
:10342000C8C9CACBCCCDCECFD0D1D2D3D4D5D6D7A4
:10343000D8D9DADBDCDDDEDFE0E1E2E3E4E5E6E794
:10344000E8E9EAEBECEDEEEFF0F1F2F3F4F5F6F784
:10345000F8F9FAFBFCFDFEFF01000400100040003B
:10346000000100020000010002000400080010003A
:103470002000000007000000000000000000000025
:1034800000000000A434000800000020200000001C
:10349000640F0008C43400082000002060240000ED
:1034A000740F00080000000001020304010203047D
:1034B00006070809000000000000000000000000EE
:0434C0000000000008
:04000005080001AD41
:00000001FF
