:020000040800F2
:1000000078240020C1010008510900084D090008AA
:100010004F0900086902000899100008000000005C
:100020000000000000000000000000001D0D00089E
:100030006B02000800000000D1090008410E000812
:10004000DB010008DB010008DB010008DB01000820
:10005000DB010008DB010008DB010008DB01000810
:10006000DB010008DB010008DB010008DB01000800
:10007000DB010008DB010008DB010008DB010008F0
:10008000DB010008DB010008DB010008DB010008E0
:10009000DB010008DB010008DB010008DB010008D0
:1000A000DB010008DB010008DB010008DB010008C0
:1000B000DB010008DB010008DB010008DB010008B0
:1000C000DB010008DB010008DB010008DB010008A0
:1000D000DB010008DB010008DB010008DB01000890
:1000E000DB010008DB010008DB010008DB01000880
:1000F000DB010008DB010008DB010008DB01000870
:10010000DB010008DB010008DB010008DB0100085F
:10011000DB010008DB010008DB010008DB0100084F
:10012000DB010008DB010008DB010008DB0100083F
:10013000DB010008DB010008DB010008DB0100082F
:10014000DB010008DB010008DB010008DB0100081F
:10015000DB010008DB010008DB010008DB0100080F
:10016000DB010008DB010008DB010008DB010008FF
:10017000DB010008DB010008DB010008DB010008EF
:10018000DB010008DB010008DB010008DB010008DF
:10019000DB010008DB010008DB010008DB010008CF
:1001A000DB010008DB010008DB010008DFF80CD0F0
:1001B00000F048F800480047FD2F00087824002090
:1001C0000648804706480047FEE7FEE7FEE7FEE7F1
:1001D000FEE7FEE7FEE7FEE7FEE7FEE7450E000866
:1001E000AD01000840EA01039B0703D009E008C9FC
:1001F000121F08C0042AFAD203E011F8013B00F8EC
:10020000013B521EF9D27047421C10F8011B002915
:10021000FBD1801A704730B50B46014600202022E2
:10022000012409E021FA02F59D4205D303FA02F503
:10023000491B04FA02F52844151EA2F10102F1DC63
:1002400030BD0000064C074D06E0E06840F00103B9
:1002500094E8070098471034AC42F6D3FFF7AAFFA2
:100260000435000824350008FEE7704710B59AB041
:10027000012221A1234802F07FF8234C207000289E
:1002800026D0014621A000F0D1FF00211D4801F039
:10029000DFFC207000281FD023A000F0C7FF19AB9F
:1002A00064226946174802F027FA2070002818D007
:1002B000014621A000F0BAFF124801F04CFC20706A
:1002C000002814D0014623A000F0B0FF1AB010BDE2
:1002D00027A000F0ABFFD8E7002129A000F0A6FF7F
:1002E000DDE76A462DA0199900F0A0FFE4E737A0EA
:1002F00000F09CFFEAE70000303A546573742E74F6
:100300007874000050100020100000200ACEC4BCF9
:10031000FEB4F2BFAACAA7B0DC2CB4EDCEF3B4FA97
:10032000C2EB282564290A000AC6ABD2C6B9E2B1DD
:10033000EACAA7B0DC0A00000ACEC4BCFED0B4C82A
:10034000EBCAA7B0DC2CB4EDCEF3B4FAC2EB28258F
:1003500064290A000ACEC4BCFEB9D8B1D5CAA7B078
:10036000DC2CB4EDCEF3B4FAC2EB282564290A00E4
:100370000ACEC4BCFEB4F2BFAAB3C9B9A60A000033
:100380000AC6ABD2C6B9E2B1EAB3C9B9A62CC6ABAC
:10039000D2C6CAFD202564200A0000000ACEC4BCD3
:1003A000FEB6C1C8A1B3C9B9A62CB6C1C8A1D7D6DB
:1003B000BDDACAFD202564200AB6C1C8A1C4DAC8C6
:1003C000DD20A3BA0A25730A000000000ACEC4BCCF
:1003D000FEB9D8B1D5B3C9B9A60A000070B59AB0B4
:1003E00064223F496846FFF7FDFE0B223DA14048CD
:1003F00001F0C2FF3F4C2070002830D001463EA0E3
:1004000000F014FF6846FFF7FFFE024619AB69468D
:10041000374802F079FA2070002824D001463DA028
:1004200000F004FF324D2846E96801F011FC20700D
:1004300000281DD03EA000F0F9FE41A12C4802F09A
:1004400048F8064642A12A48EA6802F042F83044D9
:10045000C1B2002911D043A000F0E8FE10E049A08D
:1004600000F0E4FECEE74BA0199900F0DFFED9E7DB
:1004700050A0E96800F0DAFEDFE755A000F0D6FEF4
:1004800000211B4801F0E4FB2070C8B128A000F057
:10049000CDFE19AB69461648EA6802F02DF92070C6
:1004A00098B101461BA000F0C1FE114801F053FBBA
:1004B000207080B101464BA000F0B8FE1AB070BDAC
:1004C00000213CA000F0B2FEE3E76A464CA0199977
:1004D00000F0ACFEE9E756A000F0A8FEEEE7000051
:1004E000F4330008303A546573742E747874000045
:1004F00050100020100000200ACEC4BCFEB4F2BF91
:10050000AACAA7B0DC2CB4EDCEF3B4FAC2EB28250E
:1005100064290A000ACEC4BCFED0B4C8EBCAA7B096
:10052000DC2CB4EDCEF3B4FAC2EB282564290A0022
:100530000AC6ABD2C6B9E2B1EACAA7B0DC0A00006B
:100540000ACCEDBCD3D0C2C4DAC8DD0A000000007A
:10055000B5B1C7B0D7D6B7FBCAFD20A3BA25640A88
:10056000000000000ACCEDBCD3D0C2C4DAC8DDB3B1
:10057000C9B9A62CD7D6BDDACAFDCEAA20A3BA2502
:10058000640A00000ACEC4BCFEB4F2BFAAB3C9B963
:10059000A60A00000ACEC4BCFED0B4C8EBB3C9B9E9
:1005A000A62CD0B4C8EBD7D6BDDACAFD202564206E
:1005B0000A0000000AC6ABD2C6B9E2B1EAB3C9B9B3
:1005C000A62CC6ABD2C6CAFD202564200A000000B6
:1005D0000ACCEDBCD3D0C2C4DAC8DDCAA7B0DC0AED
:1005E000000000000ACEC4BCFEB9D8B1D5CAA7B07D
:1005F000DC2CB4EDCEF3B4FAC2EB282564290A0052
:100600000ACEC4BCFEB6C1C8A1B3C9B9A62CB6C136
:10061000C8A1D7D6BDDACAFD202564200AB6C1C854
:10062000A1C4DAC8DD20A3BA0A25730A00000000BD
:100630000ACEC4BCFEB9D8B1D5B3C9B9A60A000068
:1006400030B585B026A090E80E00C0688DE80E0099
:100650000390022226A1294801F08EFE284C20702A
:1006600000282AD0014627A000F0E0FD234D2846AF
:10067000E96801F0EDFA2070002822D028A000F0EF
:10068000D5FD6846FFF7C0FD024604AB69461B482E
:1006900002F03AF92070002818D0014624A000F09A
:1006A000C5FD164801F057FA2070002813D0014606
:1006B00026A000F0BBFD05B030BD2BA000F0B6FDBC
:1006C000D4E72DA0E96800F0B1FDDAE731A0049984
:1006D00000F0ACFDE5E737A000F0A8FDEBE7000077
:1006E000313233D2BBB6FEC8FD6162630000000048
:1006F000303A546573742E747874000050100020E2
:10070000100000200ACEC4BCFEB4F2BFAACAA7B033
:10071000DC2CB4EDCEF3B4FAC2EB282564290A0030
:100720000AC6ABD2C6B9E2B1EACAA7B0DC0A000079
:100730000ACEC4BCFED0B4C8EBCAA7B0DC2CB4ED62
:10074000CEF3B4FAC2EB282564290A000ACEC4BC51
:10075000FEB9D8B1D5CAA7B0DC2CB4EDCEF3B4FA4B
:10076000C2EB282564290A000ACEC4BCFEB4F2BF3D
:10077000AAB3C9B9A60A00000AC6ABD2C6B9E2B18B
:10078000EAB3C9B9A62CC6ABD2C6CAFD20256420DF
:100790000A0000000ACEC4BCFED0B4C8EBB3C9B98D
:1007A000A62CD0B4C8EBD7D6BDDACAFD202564206C
:1007B0000A0000000ACEC4BCFEB9D8B1D5B3C9B98D
:1007C000A60A000010B50022114608A001F0FAFAAE
:1007D0000749087028B10146BDE8104005A000F0A7
:1007E00025BDBDE810400AA000F020BD00000000BB
:1007F000100000200AB8F1CABDBBAFCAA7B0DC2CFC
:10080000B4EDCEF3B4FAC2EB282564290A00000047
:100810000AB8F1CABDBBAFB3C9B9A60A000000004F
:1008200010B5074C4021204600F05AF8AB2000F0EC
:10083000EDF92046BDE81040402100F053B800001B
:10084000001402402DE9F041002201274FF0030C73
:1008500007FA02F50B682B40AB422CD10668530017
:100860000CFA03F4A64306600E79D0F800809E408F
:1008700046EA080606600E79012E01D0022E12D13A
:100880008668A64386604E79D0F808809E4046EA86
:10089000080686604668AE43466045688E79964095
:1008A000B6B235434560C568A543C560CC799C4068
:1008B000C3681C43C460521C102AC9D3BDE8F08130
:1008C00010B54B07DB0E9A40C90800EB8100016AA6
:1008D0000F249C40A1430162016A1143016210BDD3
:1008E00041837047018370471CB501AA694609A07E
:1008F00001F040F908490870019841698078891E23
:100900004143009A50438200890004A000F08EFC0D
:100910001CBD000000000000100000200AC9E8B162
:10092000B8D7DCBFD5BCE4A3BA2531306C75204BF9
:1009300042A1A30ABFC9D3C3BFD5BCE4A3BA202038
:100940002531306C75204B42A1A30A00FEE7FEE77B
:100950007047000030B50F23C27801250178002AC6
:100960001FD0154A126802F4E062C2F5E062C2F3D9
:100970000722C2F10404D3404278A24084781C408C
:100980001443220101F1E02181F80024007800F0F5
:100990001F018D404009800000F1E020C0F80051A7
:1009A00030BD01F01F0085404809800000F1E020C3
:1009B000C0F8805130BD00000CED00E00249084352
:1009C00002490860704700000000FA050CED00E0E5
:1009D00070470000054A002903D0116801431160E7
:1009E0007047116881431160704700003038024041
:1009F000054A002903D0116801431160704711684E
:100A000081431160704700004438024070B5244BA8
:100A1000196801F00C01234C00291ED0224E042934
:100A20001DD008291DD00460196801F0F0010909E2
:100A30001E4A545C0168E14041601C6804F4E054C3
:100A4000A40A145D21FA04F484601B6803F4604373
:100A50005B0BD25CD140C16070BD0460E4E706600E
:100A6000E2E70F4A121F1168C1F38055116801F0C7
:100A70003F0135B1B6FBF1F11468C4F3881461434A
:100A800005E0B4FBF1F11468C4F388146143126803
:100A9000C2F30142521C5200B1FBF2F10160C3E704
:100AA000083802400024F40040787D010000002056
:100AB0002DE9F04106460D46144600F0EFFA134FBB
:100AC00040213846FFF70CFF132000F09FF8300E4E
:100AD00000F09CF8C6F3074000F098F8C6F3072032
:100AE00000F094F8F0B200F091F804E0FF2000F07C
:100AF0008DF805F8010B641EA4B2F7D240213846E8
:100B0000FFF7F0FEBDE8F04100F0C8BA0014024063
:100B1000002904D0018841F040010180704701881C
:100B200021F040010180704770B5104D40212846EA
:100B3000FFF7D6FE152000F069F8FF2000F066F8F8
:100B4000044640212846FFF7CDFEE0070CD14021A6
:100B50002846FFF7C5FEB72000F058F82846BDE844
:100B600070404021FFF7BEBE70BD0000001402407F
:100B70002DE9F04100F092FA0F4F40213846FFF77F
:100B8000AFFE9F2000F042F8FF2000F03FF804463F
:100B9000FF2000F03BF80546FF2000F037F806463E
:100BA00040213846FFF79EFE00F078FA200440EA24
:100BB00005203043BDE8F0810014024002460020C9
:100BC00012890A4200D001207047808970478181D4
:100BD000704730B5028802F441530A884C88CD88AA
:100BE00022438C882C4322430C8922434C89224384
:100BF0008C892243CC8922431A430280828B22F4BF
:100C000000628283098A018230BD000070B505460A
:100C10000A4C02212046FFF7D1FF0028F9D02946CF
:100C20002046FFF7D4FF01212046FFF7C7FF002829
:100C3000F9D02046FFF7C9FFC0B270BD0050014097
:100C40002DE9F04188B001212020FFF7C3FE0121EA
:100C50000805FFF7CDFE01278DF81C7000248DF8E4
:100C60001E408DF81F4002258DF81D504020069033
:100C7000DFF8A08006A94046FFF7E4FD8DF81C5080
:100C80008DF81E408DF81F408DF81D50052207215C
:100C90004046FFF715FE8020069006A94046FFF764
:100CA000D1FD052208214046FFF70AFEE801069023
:100CB00006A94046FFF7C6FD052209214046FFF779
:100CC000FFFD2E02069606A94046FFF7BBFDADF8D4
:100CD0001040ADF80C70ADF80A50ADF81440ADF806
:100CE0000840ADF80440ADF812404FF48270ADF802
:100CF0000600ADF80E60084C01A92046FFF769FF19
:100D000001212046FFF704FFFFF70EFF08B0BDE802
:100D1000F0810000001402400050014070470000C4
:100D200070B5044600F0BAF900F03CFA0E4D4021CF
:100D30002846FFF7D5FD2020FFF768FF200EFFF7BC
:100D400065FFC4F30740FFF761FFC4F30720FFF717
:100D50005DFFE0B2FFF75AFF40212846FFF7C2FDD2
:100D6000BDE8704000F09AB9001402401CB50021A3
:100D7000019100912E4A106840F4803010604FF4C9
:100D8000A043106800F4003000900198401C0190CE
:100D9000009810B901989842F3D11068800302D5E9
:100DA0000120009000E00091009801283FD12048E8
:100DB0004030016841F0805101601E49086840F4EC
:100DC000404008601A48083003680360036843F431
:100DD00000430360036843F4A0530360041F164BF1
:100DE0002360136843F08073136013689B01FCD584
:100DF0000A6842F480320A604A68D203FCD50A6865
:100E000042F400320A604A689203FCD50B4A40F271
:100E100005711160016821F003010160016841F072
:100E2000020101600168C1F381010229FAD11CBDF0
:100E30000038024000700040195A4007003C024050
:100E40007047000010B51248016841F4700101605C
:100E50001048016841F0010101600E4A002108328A
:100E6000116002680C4B1A400260031D0B4A1A60A5
:100E7000026822F48022026006480C300160FFF70D
:100E800075FF03494FF000608039086010BD000015
:100E900088ED00E000380240FFFFF6FE103000242D
:100EA0008A05C94301807047002904D0818941F433
:100EB000005181817047818921F4005181817047FF
:100EC0000246002012880A4200D00120704710B567
:100ED00040F66A13C1F3421301F01F040121A1403F
:100EE000012B07D0022B07D014303AB102680A4315
:100EF000026010BD0C30F8E71030F6E702688A4354
:100F0000026010BD7FB504460D46208A20F4405192
:100F1000E88808432082A08941F20C618843A988AF
:100F20002A8911436A8902431143A181A08A20F4CE
:100F30004071A8890843A0826846FFF767FD1E48F4
:100F4000844202D01D48844201D1039800E00298F7
:100F5000A189090408D500EBC00101EB0010296844
:100F60004900B0FBF1F007E000EBC00101EB00101D
:100F700029688900B0FBF1F06422B0FBF2F10901AD
:100F80000B096FF018056B4300EB8300A3891D0468
:100F90004FF0320307D503EBC000B0FBF2F000F0D6
:100FA0000700084306E003EB0010B0FBF2F000F08E
:100FB0000F00084320817FBD001001400014014054
:100FC000C1F308018180704730B587B00121084620
:100FD000FFF700FD01211020FFF70AFD0121880520
:100FE000FFF7F8FC4FF4E060FFF7E8FC25208DF8F0
:100FF000180001208DF81B0000248DF819408DF891
:101000001A4006A8FFF7A6FC02208DF814008DF800
:1010100016408DF817408DF81500400204901C4DC5
:1010200007220A212846FFF74BFC04A92846FFF7B0
:1010300009FC69150491072209212846FFF740FCA5
:1010400004A92846FFF7FEFB4FF4E1300090ADF80D
:101050000C400C20ADF80A00ADF80840ADF8064091
:10106000ADF804400B4C69462046FFF74BFF40F2B9
:101070002555012229462046FFF729FF294620460B
:10108000FFF70EFF01212046FFF70EFF07B030BD2E
:101090000000024000100140FEE7000010B5094CBE
:1010A00040212046FFF71CFC0520FFF7AFFDFF2085
:1010B000FFF7ACFDC007FAD12046BDE81040402143
:1010C000FFF710BC001402402DE9F05F05460E4604
:1010D000140A02F0FF09E8B24142CFB2A9EB0701BE
:1010E00001F0FF0B4FF48078002812D0E8B24042A4
:1010F000C0B205EB000A3CB3D01B80B200F0FF0980
:10110000040A3A463146284600F05EF855463E4409
:1011100038E07CB94A4631462846BDE8F05F00F029
:1011200053B842463146284600F04EF805F5807522
:1011300006F58076641EE4B2F3D24A46314628466C
:10114000BDE8F05F00F040B8B9450BD93A463146EA
:10115000284600F039F85046F1195A46BDE8F05FCC
:1011600000F032B83A4631462846BDE8F05F00F05C
:101170002BB842463146284600F026F805F5807522
:1011800006F58076641EE4B2F3D2B9F1000F06D002
:101190004A4631462846BDE8F05F00F015B8BDE884
:1011A000F09F000010B5074C40212046FFF798FB48
:1011B0000620FFF72BFD2046BDE810404021FFF739
:1011C00091BB0000001402402DE9F04106460D4697
:1011D0001446FFF763FFFFF7E5FF134F4021384642
:1011E000FFF77EFB1220FFF711FD300EFFF70EFD1B
:1011F000C6F30740FFF70AFDC6F30720FFF706FD19
:10120000F0B2FFF703FD03E015F8010BFFF7FEFC5A
:10121000641EA4B2F8D240213846FFF763FBBDE854
:10122000F041FFF73BBF0000001402400FB4054B34
:1012300010B503A9044A029800F018F810BC5DF834
:1012400014FB0000792E00081C00002002E008C8F2
:10125000121F08C1002AFAD170477047002001E030
:1012600001C1121F002AFBD1704700002DE9FF4F7A
:101270008BB088460546002606E025280BD0DDE920
:101280000D1290476D1C761C28780028F5D10FB000
:101290003046BDE8F08F0024A146A2460122AE49A7
:1012A00000E0044315F8013F203B02FA03F0084236
:1012B000F7D128782A2810D06FF02F022878A0F1D3
:1012C0003001092915D809EB890102EB410144F0ED
:1012D000020400EB01096D1CF0E758F8041B5FEAFB
:1012E000010903D544F40054C9F1000944F0020493
:1012F0006D1C28782E2817D115F8010F44F004042E
:101300002A280ED06FF02F022878A0F13001092989
:101310000AD80AEB8A0102EB410100EB010A6D1CBD
:10132000F2E758F804AB6D1C28786C280FD006DC67
:101330004C2817D068280DD06A2814D104E07428EE
:1013400010D07A280FD10DE044F400140AE044F4E0
:10135000801401E044F440146978814202D104F51C
:1013600080146D1C6D1C2878692865D006DC002867
:101370008DD0632827D0642806D15DE06E2808D080
:1013800073282AD0752877D0DDE90D129047761C96
:10139000E0E0C4F30250022809D003280DD0D8F8A9
:1013A000001004280DD00E6008F10408D2E0D8F82F
:1013B0000010F217C1E90062F6E7D8F800100E80BD
:1013C000F2E70E70F0E718F8041B8DF8001000200B
:1013D0008DF80100EB46012003E058F804BB4FF004
:1013E000FF3061074FF0000701D40AE07F1C57452A
:1013F0000DDA8742FADB1BF807100029F6D106E068
:101400007F1C8742FCDB1BF807100029F8D1DDE9BF
:101410000D23A9EB07008146214600F0B1F83044C6
:10142000C61904E0DDE90D121BF8010B90477F1E81
:10143000F8D22146484688E058F8040BC4F302511C
:101440004FF00A0B032900D100B2042900D140B2A9
:10145000002802DA40422D2102E0210505D52B218A
:101460008DF82410012104E006E0E10710D02021CE
:10147000F6E708AF089113E058F8040BC4F30251E3
:101480004FF00A0B032900D180B2042900D1C0B269
:101490000021EEE75946FEF7BEFE303107F8011D88
:1014A0000028F7D1ADEB070000F1200B600702D553
:1014B00024F4803401E04FF0010ADA4502DDAAEBA2
:1014C0000B0000E00020824600EB0B01089801446D
:1014D000A9EB01000A90E00306D4DDE90D232146C3
:1014E0000A9800F04DF806444FF0000908E009A9F9
:1014F00011F80900DDE90D12904709F10109761C88
:1015000008998945F3DBE0030CD5DDE90D2321467D
:101510000A9800F035F8064404E0DDE90D123020A9
:101520009047761CBAF10001AAF1010AF5DC05E04A
:10153000DDE90D1217F8010B9047761CBBF1000195
:10154000ABF1010BF4DC0A982146DDE90D2300F034
:1015500005F806446D1C97E6092801002DE9F041C5
:10156000044600251E461746880404D405E0394683
:101570002020B0476D1C641EF9D52846BDE8F081D7
:101580002DE9F041044600251E469046C80301D5CA
:10159000302700E02027880404D505E0414638467E
:1015A000B0476D1C641EF9D52846BDE8F0810000E7
:1015B00010B5044600202071401EE062204601F074
:1015C00079FD08B1032010BD94F82E0294F82F1273
:1015D00040EA0120A0F52A41553901D0022010BD72
:1015E00014F8660FE178627840EA0161A078663C01
:1015F000000440EA022001430B48B0EB012F01D167
:10160000002010BD14F8821FE278637841EA02617D
:10161000A278120442EA03221143B0EB012F01D158
:10162000002010BD012010BD0046415400E0401CC8
:1016300002780AB18A42FAD100787047891E42695D
:10164000921E8A4201D800207047826A807801FB8E
:10165000002070472DE9F04106460F46002F08D0C4
:101660003946304601F01AFC022809D20120BDE8B3
:10167000F081F56815B17069A84207D8012505E029
:10168000411CF4D071698142F1D83D462C46641C5E
:101690007069A04204D80224022D01D20020E6E79E
:1016A0002146304601F0FAFB38B1411CDFD0012859
:1016B000DDD0AC42EBD10020D9E76FF0704221467B
:1016C000304601F011FD28B927B12246394630468F
:1016D00001F00AFD20B101280DD001242046C6E703
:1016E000F4603069411CF9D0401E3061707940F0DF
:1016F00001007071F2E74FF0FF34EFE72DE9F05F82
:101700008B46DBF8007000E07F1C39782F29FBD076
:101710005C29F9D0D0F818A00B222021504601F006
:10172000C1FC00252E46A8464FF00809404608F1A6
:1017300001083C5C202C0BD92F2C09D05C2C07D045
:101740002E2C01D04E4516D3B9F1080F0AD107E06F
:1017500007EB0800CBF80000202C2FD804202EE047
:101760002E2C02D00620BDE8F09F08264FF00B0972
:10177000A806050EDAE7802C05D345F003052048BE
:10178000204410F8804C1FA02146FFF74FFF08B1FE
:101790000620E8E7A4F14100192802D845F0020527
:1017A00007E0A4F16100192803D845F00105203CA9
:1017B000E4B23046761C0AF80040B7E7002026B1B4
:1017C0009AF80010E52902D004E00620CBE70521B5
:1017D0008AF80010B9F1080F01D1A9060D0E05F025
:1017E0000301012901D140F01000C5F38101012955
:1017F00001D140F008008AF80B000020B3E7000098
:1018000058340008222A2B2C3A3B3C3D3E3F5B5D7E
:101810007C7F000070B505460E460021284600F08A
:10182000E6F888B900242969286801F043FC58B912
:1018300069690978E5290BD051B1002401212846B6
:1018400000F02EF80028EED0042800D1072070BD4B
:10185000641CB442F8D0F1E770B50446002120467C
:1018600000F0C5F8002818D12169206801F022FC99
:1018700005468DB96069017881B1C17A090704D440
:101880000B22A16901F0F8FB30B10021204600F0E5
:1018900007F80546002DE7D0284670BD0425FBE774
:1018A0002DE9F04104460E46E7887F1C3804000C01
:1018B0000AD0216941B1206842895209B7FBF2F38D
:1018C00002FB13721AB166E00420BDE8F081491CE6
:1018D0002161E16871B1428983785209B7FBF2F264
:1018E0005B1E1A4257D101F0D9FA0546012D06D8E0
:1018F0000220EAE70089B8424DD80420E5E7681CD9
:1019000014D020684169A9423FD88EB1E168FFF741
:10191000A1FE054628000DD0012D0DD0681C0DD06C
:10192000206801F029FD58B10120CEE70120CCE765
:101930000420CAE70720C8E70220C6E70120C4E761
:10194000206800214289303001F0ACFB2946206834
:10195000FFF774FE2168C86200264FF001080CE012
:1019600080F80480206801F007FD08B10120ACE791
:101970002068C16A491CC162761C20688178B14226
:10198000EED82168C96A891BC162E56029462068D2
:10199000FFF754FE2061E780206841894909B7FBC1
:1019A000F1F201FB1271302202EB41110844606137
:1019B00000208AE770B5044601212046FFF72AFF80
:1019C000054695B92169206801F074FB054665B9A3
:1019D00020220021606901F065FBD4E905010B229A
:1019E00001F057FB216801200871284670BD70B5D1
:1019F00004460D46E580A368012B03D020684169A9
:101A0000994201D8022070BD1BB90178032900D189
:101A1000436A2BB141898078490911FB00F618E02F
:101A20000189A94201D8022070BD406A17E0194619
:101A3000206801F033FA0346581C07D0022B03D369
:101A400020684069984203D8022070BD012070BD13
:101A5000AD1BB542EBD219462068FFF7EFFDE360FE
:101A600098B121684A895209B5FBF2F2104420610D
:101A700048894009B5FBF0F200FB1250302202EB1E
:101A8000401008446061002070BD022070BD10B598
:101A90000146012000290ED1FFF7D2F84FF6FF7062
:101AA000401E80B20028FBD1FEF7BAFEBDE8104010
:101AB000002000F027B810BD03460420002B0ED1F3
:101AC0008002012904D0022904D0032906D103E0B1
:101AD000106003E0108001E00120106000207047DA
:101AE00010B504460420002C0AD102F580524FF6AE
:101AF000FF7000EA033310031A46FEF7D9FF0020F7
:101B000010BD000010B50124002805D1FFF730F802
:101B10000249884200D10024204610BD1940EF0040
:101B200070B505460E461C460420002C11D0002D31
:101B30000ED102F5805215032846FFF7F1F84FF653
:101B4000FF7000EA043231462846FFF7BDFA002054
:101B500070BD042070BD10B50446204600F08AFE1A
:101B6000002806D1204601F031FC002801D10021D7
:101B7000216010BD2DE9F74F8B46144600226946BF
:101B8000204600F09FFF804626685FEA08005CD18F
:101B9000D6E90409A9F10201884202D8CBF8000075
:101BA00053E096F800A00025BAF1010F04D0376A7F
:101BB00000200024B8B122E002242146304601F082
:101BC0006DF9411C03D0012804D030B106E04FF07C
:101BD000010833E04FF0020830E06D1C7069641CAE
:101BE0008442EAD32AE039467F1C304601F062FA8B
:101BF00080465FEA080021D106F130047089BAF10D
:101C0000020F0CD02178E278637841EA0261A27871
:101C1000120442EA03221143090109D009E02178A4
:101C2000627851EA022100D16D1CA41C801E02E0E2
:101C30006D1C241D001FB9F10109BBD135617079FC
:101C400040F001007071CBF800504046BDE8FE8FB7
:101C50002DE9F04704460D46204601F0B7FB8046CB
:101C60005FEA080001D0BDE8F087E0790028FAD1EA
:101C7000E068A84203D2A179890700D40546A1688B
:101C80000027A7604FF00109002D61D020688678F9
:101C9000428956434FF0020A69B16A1E491EB2FBDF
:101CA000F6F2B1FBF6F39A4205D3701E8143A160B0
:101CB0006D1A61690BE0216941B90021FFF7CAFC87
:101CC0000146012905D0481C07D02161616159BB3B
:101CD0003EE084F807A00220C5E784F807900120C1
:101CE000C1E7A079800706D52068FFF7B3FC01465D
:101CF00029B935461AE0206801F0D0F80146481CA1
:101D000009D0012903D920684069884207D884F89E
:101D100007A00220A7E784F807900120A3E76161EC
:101D2000A0683044A060AD1BB542DAD8A068284452
:101D3000A06020684289B5FBF2F302FB13523AB16E
:101D4000FFF77CFCF0B121684989B5FBF1F10F1870
:101D50002068A1684289B1FBF2F302FB131131B391
:101D6000A269BA4223D0A17904F12405490611D50C
:101D7000407801232946FFF7D3FE38B184F8079055
:101D8000012070E784F807A002206CE7A07920F01A
:101D90004000A071206801233A4640782946FFF7A9
:101DA0009FFE18B184F8079001205CE7A761D4E991
:101DB0000201884204D9E060A07940F02000A071BF
:101DC000404650E72DE9F74F88B090460998012822
:101DD00003D913200BB0BDE8F08F08A801F0DEF89E
:101DE000002801DA0B20F5E7FE4951F8206056B1D2
:101DF00000213170C0B205900598FFF748FEC10779
:101E000003D00320E6E70C20E4E7400701D50A20D1
:101E1000E0E706F10A0202210598FFF74DFE30B90E
:101E20007089B0F5805F02D8B0F5007F01D2012043
:101E3000D0E702AA01210598FFF73EFE10B90298EB
:101E4000802801D20120C5E7099911B14FF0000A9D
:101E500001E04FF03F0AA0EB0A010291A8F1010056
:101E600018EA000F01D04FF00008B8F1000F13D1AD
:101E700070894FF4FA62400AB2FBF0F0B1FBF0F265
:101E80000020D94B00E0401C33F810509542FAD89E
:101E9000D54A163232F81080B8F5007F02D3708927
:101EA000B8FBF0F8B8F1000F01D14FF00108B8F11C
:101EB000800F01D94FF08008B1FBF8F0012740F600
:101EC000F672904200D302274FF6F672904200D38A
:101ED0000327032F1BD0012F24D04200121D70892D
:101EE000521E0244B2FBF0F90125AA03B2FBF0F046
:101EF00001900AEB050B0BEB0900019A841804EB27
:101F00000800A0EB0A00884212D90E2062E772890D
:101F1000072303EB80001044B0FBF2F920250020DA
:101F20000190E6E700EB4000401C4208D21CD6E7D7
:101F300003AA03210598FFF7BFFD20B9039810B14C
:101F4000B0F5004F01D90120039003982118491ED4
:101F5000401E8143081B0390032F0CD0814402983C
:101F6000411BA1EB09020199511AB1FBF8F104914F
:101F7000022F03D007E005448344F0E7049940F6BC
:101F8000F672914206D3032F06D104994FF6F672EA
:101F9000914201D20E201DE7032F02D0012F02D063
:101FA00006E00C240AE0B0F5803F01D2012405E0F0
:101FB000B0F5803F01D2042400E00624099810B156
:101FC000F020069039E0728906F130000021079078
:101FD00001F068F806F5F770012141708170002268
:101FE000C2700471FE214171029943F6C1635144EC
:101FF000B1FBF3F103913F2343EA91048471C17172
:10200000037242728272C272029901730A0A4273A7
:102010000A0C8273090EC173552086F82E02AA207D
:1020200086F82F020123002207990598FFF778FD13
:1020300008B10120CEE6F820069006F1300472893E
:102040000021204601F02EF80B2268A1204601F065
:1020500020F87089E072000A207384F80D80A5735F
:10206000280AE07301202074032F0BD04002607413
:10207000000AA0740298B0F5803F05D2E074000A0F
:1020800020750AE00020F2E704F8200F010A6170D1
:10209000010CA170000EE070203C069860753F2096
:1020A000207600206076FF21A176E07684F81CA0DF
:1020B0004FEA1A2060774FEA1A40A0774FEA1A6079
:1020C000E0774D4803908023212546222921032FC4
:1020D00022D0002016346074A074E574227584F850
:1020E00000904FEA19206070A3732174163C1322EC
:1020F00042A104F12B0000F0CCFF552084F8FE0132
:10210000AA2084F8FF010123524621460598FFF7D3
:1021100007FD48B301205DE600202534A077E07775
:1021200084F8205084F8212004F8019C4FEA1922F9
:1021300022704FEA194262704FEA1962A2700222BD
:10214000E27120726072A0720122E2722073062294
:102150006273A073E3766177253C13222CA104F10E
:10216000470000F096FFC8E7032F06D101230AF1CC
:10217000060221460598FFF7D3FC5D464FF0000BA1
:1021800072890021204600F08DFF06980390032FEE
:1021900012D0012F0ED06FF0FF0101430391217087
:1021A0000398000A60700398000CA0700398000E5A
:1021B000E0703BE01B49F0E760F0FF000390207007
:1021C0000398000A60700398000CA0700398000E3A
:1021D000E070FF2020716071A071E0712072607268
:1021E000A07221E018000020D8340008EBFE904DCA
:1021F00053444F53352E3000000021464E4F204EA1
:10220000414D452020202046415420202020200000
:102210004E4F204E414D4520202020464154333220
:102220002020200000FFFF000F20E0722A466D1CD6
:10223000012321460598FFF773FC08B10120C9E589
:1022400072890021204600F02DFF012003900CE050
:102250002A466D1C012321460598FFF761FC08B151
:102260000120B7E50398401C039003984845EFD33D
:102270000BF1010BBBF1000F82D0032F01D0DDF871
:1022800004802A466D1C012321460598FFF748FC6F
:1022900008B101209EE5B8F10108F2D1032F3AD12F
:1022A0005220207060706120A0704121E170722284
:1022B00084F8E42184F8E52184F8E61184F8E70144
:1022C0000498401E84F8E801010A84F8E911010C21
:1022D00084F8EA11000E84F8EB01022084F8EC0186
:1022E000002084F8ED0184F8EE0184F8EF01552018
:1022F00084F8FE01AA2084F8FF0101230AF10102FB
:1023000021460598FFF70CFC01230AF1070221463C
:102310000598FFF705FC002211460598FFF7CCFB56
:1023200008B1012056E5002054E5000017B581B042
:10233000144602980090684600F030FE002802DA49
:102340000B2004B010BD0B4B53F82010002201B13C
:102350000A700199002900D00A7043F8201001D0BA
:10236000012C01D00020ECE7002202A901A800F016
:10237000A9FBE6E7180000202DE9F7478BB00646D9
:10238000002E0FD04FF00008C6F8008002F01F07A3
:1023900027F001020CA904A800F094FB05462800D0
:1023A00004D094E009200EB0BDE8F08701A80A909F
:1023B00004A80C9900F02AFD0546099C0DB904B942
:1023C000062517F01C0F52D04DB1042D03D104A8DF
:1023D000FFF7F0FA054647F00807099C08E0E07AA5
:1023E00010F0110F01D0072502E0780700D508256D
:1023F000E5BB380746D584F80E8084F80F8021208D
:1024000020744621617484F8168084F81780207641
:10241000617684F80B8084F81C8084F81D8084F831
:102420001E8084F81F802146049800F0D8FD814664
:102430000021204600F03EFF049901200871B9F107
:10244000000F1FD00498D0F82CA04946049800F043
:10245000FEFE0546280015D10498A9F10109C0F82F
:102460000C905146049800F025FE05460AE04DB94F
:10247000E07AC10601D5042504E0B90702D5C007FA
:1024800000D007253DB9380701D547F0200704984B
:10249000C06AF0613462D5B9B77186F80780214609
:1024A000049800F09CFD3061207FE17F627F40EA6C
:1024B0000160A17F090441EA02210843F060C6F8E7
:1024C0000880C6F8188004983060C088B08028461C
:1024D00069E70FB42DE9F0479AB001904FF000087A
:1024E000CDF80880CDF80C8024A8199014AF23985B
:1024F00010F8011B239000296ED0252903D001A8D4
:1025000000F088FEF3E700252E4610F8011B23900B
:10251000302902D02D2905D012E0012510F8011B29
:1025200023900DE0022510F8011B239008E006EB34
:10253000860001EB4006303E239810F8011B2390E3
:10254000A1F130000928F2D96C2901D04C2905D11C
:1025500045F00405239810F8011B239000293BD077
:102560000A46A2F16100192801D8203AD2B24F2AB6
:1025700046D006DC422A41D0432A37D0442A06D12D
:1025800040E0532A07D0552A3CD0582A3CD001A815
:1025900000F040FEABE7199850F8049B1990002416
:1025A00000E0641C19F804000028FAD1A80704D53B
:1025B0000DE0202101A800F02DFE2046641CB04251
:1025C000F7D304E009F1010901A800F023FE99F80E
:1025D00000100029F6D104E075E0202101A800F0E8
:1025E00019FE2046641CB04281D2F6E7199810F813
:1025F000041B199001A800F00DFE78E7022304E007
:10260000082302E00A2300E01023680703D5199C81
:1026100001CC199404E0442A05D0199C01CC1994EA
:10262000442A04D008E0199C01CC1994F8E700284A
:1026300002DA404245F008050024B0FBF3F203FB48
:102640001202D2B2B0FBF3F0092A05D9782917D0CB
:102650004FF0070C6244D2B23032A446641C07F833
:102660000C2008B1102CE8D3280703D52D222046D2
:10267000641C3A54A146E80705D04FF0300A09E03F
:102680004FF0270CE6E74FF0200A03E0514601A87F
:1026900000F0C0FDA80704D4484609F10109B04282
:1026A000F4D3641E01A8395D00F0B4FD002CF8D10C
:1026B00003E0514601A800F0ADFD484609F10109CB
:1026C000B0429AD2F5E7CDF864800298002810DB7A
:1026D000DDE9010218AB04A900F016F948B9189910
:1026E0000298884205D103981AB0BDE8F0075DF85A
:1026F00014FB4FF0FF30F7E72DE9F84F044688460A
:10270000164699460020C9F80000204600F05EFEFB
:10271000002812D1E07900280FD1A079C0070BD092
:10272000D4E90210401A864200D9064604F124007A
:102730004FF0010A009098E00720BDE8F88F22686A
:10274000A0685189B0FBF1F301FB1303002B6DD19D
:10275000B0FBF1F193785B1E1940CDB275B940B171
:102760001046616900F09AFB022804D20220E07151
:10277000E3E72069F8E7411C1CD0606161692068CB
:10278000FEF75CFFD0B100EB050B20684189B6FB7A
:10279000F1F74FB38178EA198A4200D94F1B40788C
:1027A0003B465A464146FFF79BF950B184F807A0D3
:1027B0000120C2E784F807A00120BEE70220E071F3
:1027C000BBE7A07940060BD5A069A0EB0B00B8428F
:1027D00006D221684A89009900FB028000F059FC6A
:1027E000206845897D4336E0A2695A451CD0A1790D
:1027F00049060DD5407801230099FFF791F918B1EA
:1028000084F807A0012098E7A07920F04000A0718B
:10281000206801235A4640780099FFF761F918B102
:1028200084F807A0012088E7C4F818B02068A168E0
:102830004089B1FBF0F200FB1212851AB54200D9B3
:102840003546B1FBF0F200FB1210011924312A4683
:10285000404600F01EFCA844A0682844A060D9F8B7
:1028600000002844C9F80000761B002E7FF467AFF3
:10287000002062E770B50446204600F0A7FD00285E
:102880000ED1A1798A060BD548060ED52068012302
:1028900004F124014078A269FFF742F908B1012050
:1028A00070BDA07920F04000A071E169206800F0BF
:1028B00001FC0028F4D1256AE87A40F02000E87293
:1028C000207B2877A089000A6877E068000CA87749
:1028D000E068000EE8772846216900F0EBFC002054
:1028E000A875E8752121297646216976A874E874CF
:1028F000A07920F02000A0712168012008712068D3
:10290000BDE8704000F0DEBC2DE9F84F0446884673
:10291000164699460020C9F80000204600F056FDF2
:10292000002806D1E079002803D1A079800702D4DD
:102930000720BDE8F88FA068811900D3002604F1B4
:1029400024004FF0010A0090ADE02268A068518990
:10295000B0FBF1F301FB1303002B7DD1B0FBF1F1D0
:1029600093785B1E1940CDB2F5B968B11046616924
:10297000FEF770FE002870D001280DD0411C0ED04B
:102980006061216979B10FE020690028F2D100214E
:102990001046FEF75FFEEDE70220E071C9E784F81C
:1029A00007A00120C5E72061A07940060FD5206867
:1029B0000123A26940780099FFF7B2F818B184F8B2
:1029C00007A00120B5E7A07920F04000A07161695F
:1029D0002068FEF733FEB0B100EB050B206841899B
:1029E000B6FBF1F737B38178EA198A4200D94F1B59
:1029F00040783B465A464146FFF792F830B184F89A
:102A000007A0012095E70220E07192E7A069A0EB02
:102A10000B00B8420AD221684A8900FB0281009863
:102A200000F037FBA07920F04000A07120684589B4
:102A30007D432EE0A169594510D0D4E9021291429C
:102A40000CD2407801235A460099FFF749F828B183
:102A500084F807A001206CE702E027E0C4F818B072
:102A60002068A1684089B1FBF0F200FB1212851AC0
:102A7000B54200D93546B1FBF0F200FB12102044FC
:102A800024302A46414600F004FBA07940F0400083
:102A9000A071A844A0682844A060D9F80000284488
:102AA000C9F80000761B002E7FF44FAFD4E9020175
:102AB000884200D9E060A07940F02000A071002099
:102AC00037E700002DE9FF478046084616460027F5
:102AD000C8F8007000F062FA0546002D03DA0B20FA
:102AE00004B0BDE8F087C64850F825408CB1C8F85E
:102AF0000040207820B16078FFF704F8C1070AD0C1
:102B00002770E8B26070FEF7C2FFC1070AD0032049
:102B1000E6E70C20E4E71EB1400701D50A20DFE715
:102B20000020DDE71EB1400701D50A20D8E7607814
:102B300004F10A020221FEF7BFFF30B96089B0F547
:102B4000007F02D3B0F5805F01D90120C8E70025DE
:102B500029462046FEF72CFD012826D10021E84613
:102B600004EB011000F5F770027952B1027AC37AD2
:102B700042EA0362837A407A1B0443EA002002435C
:102B800000E0002248F82120491C0429E8D300264F
:102B900058F8265025B129462046FEF709FD00E0E9
:102BA000022010B1761C042EF2D3032802D018B1F3
:102BB0000D2095E7012093E794F83B0094F83C1032
:102BC000B4F80AC040EA0120604501D00D2087E733
:102BD00094F8460094F8471040EA012058B914F8D8
:102BE000540FE178627840EA0160A1780904543C0E
:102BF00041EA02210843A06194F840A084F803A0B0
:102C0000BAF1010F04D0BAF1020F01D00D2067E72D
:102C10000AFB00FA94F83D20A27012B1511E0A423C
:102C200001D00D205CE794F8411094F8423041EA5D
:102C3000032323814FEA5C16B3FBF6F106FB113147
:102C400009B10D204CE794F8431094F8448041EA10
:102C5000082179B994F8501094F8538094F8519061
:102C600041EA086194F852804FEA084848EA092886
:102C700041EA080194F83E8094F83F9048EA092917
:102C8000B9F1000F08D0B3FBF6F609EB0A08B0441F
:102C9000414503D20D2023E70D2021E7A1EB0801D8
:102CA000B1FBF2F141B3012640F6F672914200D336
:102CB00002264FF6F672914200D30326891C616109
:102CC000E56105EB09022262A844C4F82880032EBE
:102CD00014D03BB352446262022E25D001F00102AF
:102CE00001EB410102EB5101491E6144B1FBFCF1D2
:102CF00081421BD90D20F3E60D20F1E60BB10D202A
:102D0000EEE694F85C2094F85F3094F85D8042EA37
:102D1000036294F85E301B0443EA08231A4362629C
:102D20008900E1E70D20DBE64900DDE74FF0FF30E9
:102D30002061E06080206071032E57D194F860001C
:102D400094F8611040EA012001284FD1691C204607
:102D500000F0B0F9F0BB677194F82E0294F82F12CE
:102D600040EA0120A0F52A4155393FD114F8300F2F
:102D7000E178627840EA0160A178303C090441EAD8
:102D8000022108431F49884230D194F8140294F874
:102D9000171294F8152240EA016094F816120904FB
:102DA00041EA02210843184988421FD194F81802C9
:102DB00094F81B1294F8192240EA016094F81A1250
:102DC000090441EA02210843206194F81C0294F8A6
:102DD0001F1200E00AE040EA016094F81E1294F825
:102DE0001D22090441EA02210843E06026700449DB
:102DF000091F0888401C0880E080002070E6000061
:102E000018000020525261417272416173B504464C
:102E1000019908782F2801D05C2801D1491C019123
:102E20000025A56001980078202805D200212046C1
:102E3000FEF7DDFD65617CBD01A92046FEF75EFC65
:102E40000028F8D12046FEF707FDA169C97A28B10C
:102E50000428F0D14907EED405207CBD4907FCD4F5
:102E60006169C87AC00601D405207CBD206800F0E5
:102E7000B6F8A060E0E7000070B50446064DE1B288
:102E80002846FEF79DF880212846FEF719F800280D
:102E9000F9D0204670BD0000001001402DE9F0413E
:102EA00004460D46022D02D36069A84201D80126CE
:102EB00009E04FF0FF362078012807D0022835D0EE
:102EC00003284BD001263046BDE8F08105EB5507BD
:102ED0006089216AB7FBF0F00144204600F0EAF86F
:102EE0000028F0D160893946B1FBF0F200FB1211E5
:102EF00021447F1C91F83080B7FBF0F0216A014437
:102F0000204600F0D7F80028DDD16089B7FBF0F14A
:102F100000FB1170204490F8300048EA0020E907D7
:102F200001D00609CFE7C0F30B06CCE76089216A20
:102F30004008B5FBF0F00144204600F0BBF8002843
:102F4000C1D161896800B0FBF1F201FB120020449D
:102F500030300178407841EA0026B4E76089216A80
:102F60008008B5FBF0F00144204600F0A3F80028EB
:102F7000A9D16189A800B0FBF1F201FB1200204445
:102F800030300178C27841EA0261827840781204D8
:102F900042EA0020014321F0704694E710B5044650
:102FA0004FF0FF302368002B0BD0194600E0491C7E
:102FB0000A78212A01D33A2AF9D10A783A2A01D08B
:102FC000002010BD13F8012B303A0A2AF9D28B42A7
:102FD000F7D1002AF5D11046491C216010BD0246E8
:102FE000887ECB7E40EA03201278032A05D10A7D31
:102FF000497D42EA012140EA01407047FDF7E4FFC4
:1030000001220EA10E48FFF791F90E49087080B118
:1030100001460DA0FEF70AF9FDF7D4FBFDF764FCAD
:10302000FDF7DCF9FDF760FCFDF70AFBFDF71EF983
:10303000FEE70DA0FEF7FAF8EEE700000000000042
:1030400020000020100000200A4661744673B9D2A7
:10305000D4D8CAA7B0DC2CB4EDCEF3B4FAC2EB28B6
:103060002564290A000000000A4661744673B9D23B
:10307000D4D8B3C9B9A60A0010B50023521E541CF7
:1030800005D010F8013B11F8014B1B1BF6D0184678
:1030900010BD03E011F8013B00F8013B521E531C28
:1030A000F8D17047C9B201E000F8011B521E531C51
:1030B000FAD1704770B504460E460025E06AB0426A
:1030C00010D0204600F058F905465DB9607801231C
:1030D000324604F13001FEF703FD10B14FF0FF3628
:1030E0000125E662284670BD2DE9F04704460D46ED
:1030F0001646022D02D36069A84202D80220BDE81C
:10310000F087207806F0FF094FF00108012805D06C
:10311000022842D003285AD00220F0E705EB5507D9
:103120006089216AB7FBF0F001442046FFF7C2FF37
:103130000028E4D1384661897F1CB0FBF1F201FB25
:10314000120020443030E90703D0017869F31F11E1
:1031500000E03146017084F804806089216AB7FB81
:10316000F0F001442046FFF7A5FF0028C7D1618990
:10317000B7FBF1F201FB127121443031EA0702D0B2
:10318000C6F3071205E00A78C6F3032302F0F00243
:103190001A430A7084F80480B1E76089216A400804
:1031A000B5FBF0F001442046FFF784FF0028A6D1CC
:1031B00062896900B1FBF2F302FB1311214481F82B
:1031C0003090320A81F8312084F8048097E76089D2
:1031D000216A8008B5FBF0F001442046FFF76AFF42
:1031E00000288CD16289A900B1FBF2F302FB131114
:1031F000214430314FF07043CA7803EA026232430F
:103200000A70130A4B70130C8B70120ECA7084F87C
:10321000048074E738B504466068002816DB451C56
:10322000204401733D2D0DDB6B462A4604F10C0151
:103230002068FFF769FB0098A84201D1002501E052
:103240004FF0FF356560A068401CA06038BD2DE9D7
:10325000F04104460F46022F02D36069B84201D8FC
:10326000022624E000261FE039462046FFF716FE1E
:103270000546E5B1012D09D0681C09D00022394668
:103280002046FFF731FF06468EB903E002260EE026
:1032900001260CE02069411C05D0401C20616079AA
:1032A00040F0010060712F466069B842DCD83046BA
:1032B000BDE8F08181760A0AC2760A0C0275090E11
:1032C0004175704770B50446204600F055F8054634
:1032D00028004FD12078032845D16079012842D1B8
:1032E00004F13000628900210646FFF7DBFE55201D
:1032F00084F82E02AA2084F82F02522084F830008D
:1033000084F83100612084F83200412184F83310C0
:10331000722284F8142284F8152284F8161284F894
:103320001702206984F81802010A84F81912010CA6
:1033300084F81A12000E84F81B02E06884F81C025C
:10334000010A84F81D12010C84F81E12000E84F884
:103350001F02E269521CE262607801233146FEF7E7
:10336000DFFB00206071002260781146FEF7A4FBAD
:1033700000B10125284670BD2DE9F0410446002723
:10338000207900281FD0E66A04F13001607801231B
:1033900032468846FEF7C4FB08B1012713E000203F
:1033A0002071206AA169301A88420CD2E57808E0C1
:1033B000A06906446078012332464146FEF7B0FB1F
:1033C0006D1E022DF4D23846BDE8F08110B50028FC
:1033D0000CD0016851B10A7842B1CA888088824213
:1033E00004D14878FEF78EFBC00701D0092010BD3C
:1033F000002010BD4641544653B6C1D0B4CEC4BC23
:10340000FEB2E2CAD400000000000000000000008C
:1034100000000000000000000000000000000000AC
:10342000000000000000000000000000000000009C
:10343000000000000000000000000000000000008C
:10344000000000000000000000000000000000007C
:103450000000000000000000809A45418E418F80EE
:103460004545454949498E8F9092924F994F555500
:1034700059999A9B9C9D9E9F41494F55A5A5A6A7EA
:10348000A8A9AAABACADAEAFB0B1B2B3B4B5B6B744
:10349000B8B9BABBBCBDBEBFC0C1C2C3C4C5C6C734
:1034A000C8C9CACBCCCDCECFD0D1D2D3D4D5D6D724
:1034B000D8D9DADBDCDDDEDFE0E1E2E3E4E5E6E714
:1034C000E8E9EAEBECEDEEEFF0F1F2F3F4F5F6F704
:1034D000F8F9FAFBFCFDFEFF000400020001800089
:1034E00040002000100008000400020000000080DE
:1034F00000400020001000080040002000100008DC
:103500000004000224350008000000202000000014
:103510004C12000844350008200000205824000008
:103520005C12000800000000010203040102030411
:10353000060708090000000000000000000000006D
:043540000000000087
:04000005080001AD41
:00000001FF
